{
  "abi": [
    {
      "type": "fallback",
      "stateMutability": "payable"
    },
    {
      "type": "receive",
      "stateMutability": "payable"
    },
    {
      "type": "function",
      "name": "_getInitMSACalldata",
      "inputs": [
        {
          "name": "$valdiators",
          "type": "tuple[]",
          "internalType": "struct BootstrapConfig[]",
          "components": [
            {
              "name": "module",
              "type": "address",
              "internalType": "address"
            },
            {
              "name": "data",
              "type": "bytes",
              "internalType": "bytes"
            }
          ]
        },
        {
          "name": "$executors",
          "type": "tuple[]",
          "internalType": "struct BootstrapConfig[]",
          "components": [
            {
              "name": "module",
              "type": "address",
              "internalType": "address"
            },
            {
              "name": "data",
              "type": "bytes",
              "internalType": "bytes"
            }
          ]
        },
        {
          "name": "_hook",
          "type": "tuple",
          "internalType": "struct BootstrapConfig",
          "components": [
            {
              "name": "module",
              "type": "address",
              "internalType": "address"
            },
            {
              "name": "data",
              "type": "bytes",
              "internalType": "bytes"
            }
          ]
        },
        {
          "name": "_fallbacks",
          "type": "tuple[]",
          "internalType": "struct BootstrapConfig[]",
          "components": [
            {
              "name": "module",
              "type": "address",
              "internalType": "address"
            },
            {
              "name": "data",
              "type": "bytes",
              "internalType": "bytes"
            }
          ]
        }
      ],
      "outputs": [
        {
          "name": "init",
          "type": "bytes",
          "internalType": "bytes"
        }
      ],
      "stateMutability": "view"
    },
    {
      "type": "function",
      "name": "entryPoint",
      "inputs": [],
      "outputs": [
        {
          "name": "",
          "type": "address",
          "internalType": "address"
        }
      ],
      "stateMutability": "view"
    },
    {
      "type": "function",
      "name": "getActiveFallbackHandler",
      "inputs": [
        {
          "name": "functionSig",
          "type": "bytes4",
          "internalType": "bytes4"
        }
      ],
      "outputs": [
        {
          "name": "",
          "type": "tuple",
          "internalType": "struct ModuleManager.FallbackHandler",
          "components": [
            {
              "name": "handler",
              "type": "address",
              "internalType": "address"
            },
            {
              "name": "calltype",
              "type": "bytes1",
              "internalType": "CallType"
            }
          ]
        }
      ],
      "stateMutability": "view"
    },
    {
      "type": "function",
      "name": "getActiveHook",
      "inputs": [],
      "outputs": [
        {
          "name": "hook",
          "type": "address",
          "internalType": "address"
        }
      ],
      "stateMutability": "view"
    },
    {
      "type": "function",
      "name": "getExecutorsPaginated",
      "inputs": [
        {
          "name": "cursor",
          "type": "address",
          "internalType": "address"
        },
        {
          "name": "size",
          "type": "uint256",
          "internalType": "uint256"
        }
      ],
      "outputs": [
        {
          "name": "array",
          "type": "address[]",
          "internalType": "address[]"
        },
        {
          "name": "next",
          "type": "address",
          "internalType": "address"
        }
      ],
      "stateMutability": "view"
    },
    {
      "type": "function",
      "name": "getValidatorPaginated",
      "inputs": [
        {
          "name": "cursor",
          "type": "address",
          "internalType": "address"
        },
        {
          "name": "size",
          "type": "uint256",
          "internalType": "uint256"
        }
      ],
      "outputs": [
        {
          "name": "array",
          "type": "address[]",
          "internalType": "address[]"
        },
        {
          "name": "next",
          "type": "address",
          "internalType": "address"
        }
      ],
      "stateMutability": "view"
    },
    {
      "type": "function",
      "name": "initMSA",
      "inputs": [
        {
          "name": "$valdiators",
          "type": "tuple[]",
          "internalType": "struct BootstrapConfig[]",
          "components": [
            {
              "name": "module",
              "type": "address",
              "internalType": "address"
            },
            {
              "name": "data",
              "type": "bytes",
              "internalType": "bytes"
            }
          ]
        },
        {
          "name": "$executors",
          "type": "tuple[]",
          "internalType": "struct BootstrapConfig[]",
          "components": [
            {
              "name": "module",
              "type": "address",
              "internalType": "address"
            },
            {
              "name": "data",
              "type": "bytes",
              "internalType": "bytes"
            }
          ]
        },
        {
          "name": "_hook",
          "type": "tuple",
          "internalType": "struct BootstrapConfig",
          "components": [
            {
              "name": "module",
              "type": "address",
              "internalType": "address"
            },
            {
              "name": "data",
              "type": "bytes",
              "internalType": "bytes"
            }
          ]
        },
        {
          "name": "_fallbacks",
          "type": "tuple[]",
          "internalType": "struct BootstrapConfig[]",
          "components": [
            {
              "name": "module",
              "type": "address",
              "internalType": "address"
            },
            {
              "name": "data",
              "type": "bytes",
              "internalType": "bytes"
            }
          ]
        }
      ],
      "outputs": [],
      "stateMutability": "nonpayable"
    },
    {
      "type": "function",
      "name": "singleInitMSA",
      "inputs": [
        {
          "name": "validator",
          "type": "address",
          "internalType": "contract IModule"
        },
        {
          "name": "data",
          "type": "bytes",
          "internalType": "bytes"
        }
      ],
      "outputs": [],
      "stateMutability": "nonpayable"
    },
    {
      "type": "error",
      "name": "AccountAccessUnauthorized",
      "inputs": []
    },
    {
      "type": "error",
      "name": "CannotRemoveLastValidator",
      "inputs": []
    },
    {
      "type": "error",
      "name": "HookAlreadyInstalled",
      "inputs": [
        {
          "name": "currentHook",
          "type": "address",
          "internalType": "address"
        }
      ]
    },
    {
      "type": "error",
      "name": "HookPostCheckFailed",
      "inputs": []
    },
    {
      "type": "error",
      "name": "InvalidModule",
      "inputs": [
        {
          "name": "module",
          "type": "address",
          "internalType": "address"
        }
      ]
    },
    {
      "type": "error",
      "name": "LinkedList_EntryAlreadyInList",
      "inputs": [
        {
          "name": "entry",
          "type": "address",
          "internalType": "address"
        }
      ]
    },
    {
      "type": "error",
      "name": "LinkedList_InvalidEntry",
      "inputs": [
        {
          "name": "entry",
          "type": "address",
          "internalType": "address"
        }
      ]
    },
    {
      "type": "error",
      "name": "LinkedList_InvalidPage",
      "inputs": []
    },
    {
      "type": "error",
      "name": "NoFallbackHandler",
      "inputs": [
        {
          "name": "selector",
          "type": "bytes4",
          "internalType": "bytes4"
        }
      ]
    }
  ],
  "bytecode": {
    "object": "0x608060405234801561001057600080fd5b50611482806100206000396000f3fe60806040526004361061007f5760003560e01c8063855713681161004e57806385571368146102ad578063b0d691fe146102db578063ea5f61d0146102fe578063eac9b20d1461031e57610086565b80630a664dba1461020e5780635e87556d14610240578063642219af1461026d5780636b0d5cc41461028d57610086565b3661008657005b60003560e01c63bc197c81811463f23a6e6182141763150b7a02821417156100b257806020526020603cf35b50600080356001600160e01b031916815260008051602061142d8339815191526020526040902080546001600160a01b03811690600160a01b900460f81b8161012157604051632464e76d60e11b81526001600160e01b03196000351660048201526024015b60405180910390fd5b61012f81607f60f91b6103d4565b156101835760408051368101909152366000823760408051601481019091523360601b90526000803660140183865afa90506101713d60408051918201905290565b3d6000823e8161017f573d81fd5b3d81f35b61018e8160006103d4565b156101d15760408051368101909152366000823760408051601481019091523360601b9052600080366014018382875af190506101713d60408051918201905290565b6101e3816001600160f81b03196103d4565b1561020c573660008037600080366000855af43d6000803e808015610207573d6000f35b3d6000fd5b005b34801561021a57600080fd5b506102236103eb565b6040516001600160a01b0390911681526020015b60405180910390f35b34801561024c57600080fd5b5061026061025b366004610ea0565b61041a565b6040516102379190610fb7565b34801561027957600080fd5b5061020c610288366004610ea0565b6104a3565b34801561029957600080fd5b5061020c6102a8366004610fe2565b6106ef565b3480156102b957600080fd5b506102cd6102c8366004611067565b6106ff565b604051610237929190611093565b3480156102e757600080fd5b506f71727de22e5e9d8baf0edac6f37da032610223565b34801561030a57600080fd5b506102cd610319366004611067565b61073c565b34801561032a57600080fd5b506103a66103393660046110f6565b604080518082018252600080825260209182018190526001600160e01b031993909316835260008051602061142d8339815191528152918190208151808301909252546001600160a01b0381168252600160a01b900460f81b6001600160f81b0319169181019190915290565b6040805182516001600160a01b031681526020928301516001600160f81b0319169281019290925201610237565b6001600160f81b0319828116908216145b92915050565b60006104157f36e05829dd1b9a4411d96a3549582172d7f071c1c0db5c573fcf94eb284316085490565b905090565b606030306001600160a01b031663642219af8a8a8a8a8a8a8a6040516024016104499796959493929190611230565b604051602081830303815290604052915060e01b6020820180516001600160e01b03838183161783525050505060405160200161048792919061128e565b6040516020818303038152906040529050979650505050505050565b60005b868110156105225761051a8888838181106104c3576104c36112ba565b90506020028101906104d591906112d0565b6104e39060208101906112f0565b8989848181106104f5576104f56112ba565b905060200281019061050791906112d0565b61051590602081019061130d565b61076c565b6001016104a6565b5060005b848110156105e4576000868683818110610542576105426112ba565b905060200281019061055491906112d0565b6105629060208101906112f0565b6001600160a01b0316146105dc576105dc868683818110610585576105856112ba565b905060200281019061059791906112d0565b6105a59060208101906112f0565b8787848181106105b7576105b76112ba565b90506020028101906105c991906112d0565b6105d790602081019061130d565b6107f3565b600101610526565b5060006105f460208501856112f0565b6001600160a01b0316146106245761062461061260208501856112f0565b61061f602086018661130d565b61081e565b60005b818110156106e5576000838383818110610643576106436112ba565b905060200281019061065591906112d0565b6106639060208101906112f0565b6001600160a01b0316146106dd576106dd838383818110610686576106866112ba565b905060200281019061069891906112d0565b6106a69060208101906112f0565b8484848181106106b8576106b86112ba565b90506020028101906106ca91906112d0565b6106d890602081019061130d565b6108a5565b600101610627565b5050505050505050565b6106fa83838361076c565b505050565b606060007ff88ce1fdb7fb1cbd3282e49729100fa3f2d6ee9f797961fe4fb1871cea89ea0261072f818686610b78565b92509250505b9250929050565b606060007ff88ce1fdb7fb1cbd3282e49729100fa3f2d6ee9f797961fe4fb1871cea89ea0361072f818686610b78565b7ff88ce1fdb7fb1cbd3282e49729100fa3f2d6ee9f797961fe4fb1871cea89ea026107978185610d15565b6040516306d61fe760e41b81526001600160a01b03851690636d61fe70906107c59086908690600401611354565b600060405180830381600087803b1580156107df57600080fd5b505af11580156106e5573d6000803e3d6000fd5b7ff88ce1fdb7fb1cbd3282e49729100fa3f2d6ee9f797961fe4fb1871cea89ea036107978185610d15565b60006108487f36e05829dd1b9a4411d96a3549582172d7f071c1c0db5c573fcf94eb284316085490565b90506001600160a01b0381161561087d5760405163741cbe0360e01b81526001600160a01b0382166004820152602401610118565b610797847f36e05829dd1b9a4411d96a3549582172d7f071c1c0db5c573fcf94eb2843160855565b60006108b46004828486611368565b6108bd91611392565b90506000838360048181106108d4576108d46112ba565b909101356001600160f81b0319169150600090506108f58460058188611368565b8080601f0160208091040260200160405190810160405280939291908181526020018383808284376000920191909152509293506109389250859150610deb9050565b156109855760405162461bcd60e51b815260206004820152601e60248201527f46756e6374696f6e2073656c6563746f7220616c7265616479207573656400006044820152606401610118565b6040805180820182526001600160a01b0388811682526001600160f81b031985811660208085019182526001600160e01b03198916600090815260008051602061142d8339815191529091529490942092518354945160f81c600160a01b026001600160a81b0319909516921691909117929092179055610a079083906103d4565b15610b11576000866001600160a01b0316636d61fe7060e01b83604051602401610a319190610fb7565b60408051601f198184030181529181526020820180516001600160e01b03166001600160e01b0319909416939093179092529051610a6f91906113c2565b600060405180830381855af49150503d8060008114610aaa576040519150601f19603f3d011682016040523d82523d6000602084013e610aaf565b606091505b5050905080610b0b5760405162461bcd60e51b815260206004820152602260248201527f46616c6c6261636b2068616e646c6572206661696c656420746f20696e7374616044820152611b1b60f21b6064820152608401610118565b50610b70565b6040516306d61fe760e41b81526001600160a01b03871690636d61fe7090610b3d908490600401610fb7565b600060405180830381600087803b158015610b5757600080fd5b505af1158015610b6b573d6000803e3d6000fd5b505050505b505050505050565b606060006001600160a01b038416600114801590610b9b5750610b9b8585610e1f565b15610bc457604051637c84ecfb60e01b81526001600160a01b0385166004820152602401610118565b82600003610be55760405163f725081760e01b815260040160405180910390fd5b8267ffffffffffffffff811115610bfe57610bfe6113d4565b604051908082528060200260200182016040528015610c27578160200160208202803683370190505b506001600160a01b03808616600090815260208890526040812054929450911691505b6001600160a01b03821615801590610c6c57506001600160a01b038216600114155b8015610c7757508381105b15610cd15781838281518110610c8f57610c8f6112ba565b6001600160a01b039283166020918202929092018101919091529281166000908152928790526040909220549091169080610cc981611400565b915050610c4a565b6001600160a01b038216600114610d095782610cee600183611419565b81518110610cfe57610cfe6112ba565b602002602001015191505b80835250935093915050565b6001600160a01b0381161580610d3457506001600160a01b0381166001145b15610d5d57604051637c84ecfb60e01b81526001600160a01b0382166004820152602401610118565b6001600160a01b038181166000908152602084905260409020541615610da157604051631034f46960e21b81526001600160a01b0382166004820152602401610118565b60016000818152602093909352604080842080546001600160a01b039485168087529286208054959091166001600160a01b03199586161790559190935280549091169091179055565b6001600160e01b031916600090815260008051602061142d83398151915260205260409020546001600160a01b0316151590565b600060016001600160a01b03831614801590610e5457506001600160a01b038281166000908152602085905260409020541615155b9392505050565b60008083601f840112610e6d57600080fd5b50813567ffffffffffffffff811115610e8557600080fd5b6020830191508360208260051b850101111561073557600080fd5b60008060008060008060006080888a031215610ebb57600080fd5b873567ffffffffffffffff80821115610ed357600080fd5b610edf8b838c01610e5b565b909950975060208a0135915080821115610ef857600080fd5b610f048b838c01610e5b565b909750955060408a0135915080821115610f1d57600080fd5b908901906040828c031215610f3157600080fd5b90935060608901359080821115610f4757600080fd5b50610f548a828b01610e5b565b989b979a50959850939692959293505050565b60005b83811015610f82578181015183820152602001610f6a565b50506000910152565b60008151808452610fa3816020860160208601610f67565b601f01601f19169290920160200192915050565b602081526000610e546020830184610f8b565b6001600160a01b0381168114610fdf57600080fd5b50565b600080600060408486031215610ff757600080fd5b833561100281610fca565b9250602084013567ffffffffffffffff8082111561101f57600080fd5b818601915086601f83011261103357600080fd5b81358181111561104257600080fd5b87602082850101111561105457600080fd5b6020830194508093505050509250925092565b6000806040838503121561107a57600080fd5b823561108581610fca565b946020939093013593505050565b604080825283519082018190526000906020906060840190828701845b828110156110d55781516001600160a01b0316845292840192908401906001016110b0565b5050506001600160a01b039490941660209390930192909252509092915050565b60006020828403121561110857600080fd5b81356001600160e01b031981168114610e5457600080fd5b81835281816020850137506000828201602090810191909152601f909101601f19169091010190565b6000813561115681610fca565b6001600160a01b03168352602082013536839003601e1901811261117957600080fd5b820160208101903567ffffffffffffffff81111561119657600080fd5b8036038213156111a557600080fd5b604060208601526111ba604086018284611120565b95945050505050565b6000838385526020808601955060208560051b830101846000805b8881101561122257858403601f19018a52823536899003603e19018112611203578283fd5b61120f858a8301611149565b9a86019a945050918401916001016111de565b509198975050505050505050565b60808152600061124460808301898b6111c3565b828103602084015261125781888a6111c3565b9050828103604084015261126b8187611149565b905082810360608401526112808185876111c3565b9a9950505050505050505050565b6001600160a01b03831681526040602082018190526000906112b290830184610f8b565b949350505050565b634e487b7160e01b600052603260045260246000fd5b60008235603e198336030181126112e657600080fd5b9190910192915050565b60006020828403121561130257600080fd5b8135610e5481610fca565b6000808335601e1984360301811261132457600080fd5b83018035915067ffffffffffffffff82111561133f57600080fd5b60200191503681900382131561073557600080fd5b6020815260006112b2602083018486611120565b6000808585111561137857600080fd5b8386111561138557600080fd5b5050820193919092039150565b6001600160e01b031981358181169160048510156113ba5780818660040360031b1b83161692505b505092915050565b600082516112e6818460208701610f67565b634e487b7160e01b600052604160045260246000fd5b634e487b7160e01b600052601160045260246000fd5b600060018201611412576114126113ea565b5060010190565b818103818111156103e5576103e56113ea56fef88ce1fdb7fb1cbd3282e49729100fa3f2d6ee9f797961fe4fb1871cea89ea04a2646970667358221220c488e383927f44529f5b7e031168d7c374177dcbef0423914fd4d938719ce4b664736f6c63430008180033",
    "linkReferences": {}
  },
  "methodIdentifiers": {
    "_getInitMSACalldata((address,bytes)[],(address,bytes)[],(address,bytes),(address,bytes)[])": "5e87556d",
    "entryPoint()": "b0d691fe",
    "getActiveFallbackHandler(bytes4)": "eac9b20d",
    "getActiveHook()": "0a664dba",
    "getExecutorsPaginated(address,uint256)": "ea5f61d0",
    "getValidatorPaginated(address,uint256)": "85571368",
    "initMSA((address,bytes)[],(address,bytes)[],(address,bytes),(address,bytes)[])": "642219af",
    "singleInitMSA(address,bytes)": "6b0d5cc4"
  },
  "id": 58
}