{
  "abi": [
    {
      "type": "fallback",
      "stateMutability": "nonpayable"
    },
    {
      "type": "function",
      "name": "_getInitMSACalldata",
      "inputs": [
        {
          "name": "_validators",
          "type": "tuple[]",
          "internalType": "struct BootstrapConfig[]",
          "components": [
            {
              "name": "module",
              "type": "address",
              "internalType": "contract IModule"
            },
            {
              "name": "data",
              "type": "bytes",
              "internalType": "bytes"
            }
          ]
        },
        {
          "name": "_executors",
          "type": "tuple[]",
          "internalType": "struct BootstrapConfig[]",
          "components": [
            {
              "name": "module",
              "type": "address",
              "internalType": "contract IModule"
            },
            {
              "name": "data",
              "type": "bytes",
              "internalType": "bytes"
            }
          ]
        },
        {
          "name": "_hook",
          "type": "tuple",
          "internalType": "struct BootstrapConfig",
          "components": [
            {
              "name": "module",
              "type": "address",
              "internalType": "contract IModule"
            },
            {
              "name": "data",
              "type": "bytes",
              "internalType": "bytes"
            }
          ]
        },
        {
          "name": "_fallback",
          "type": "tuple",
          "internalType": "struct BootstrapConfig",
          "components": [
            {
              "name": "module",
              "type": "address",
              "internalType": "contract IModule"
            },
            {
              "name": "data",
              "type": "bytes",
              "internalType": "bytes"
            }
          ]
        }
      ],
      "outputs": [
        {
          "name": "init",
          "type": "bytes",
          "internalType": "bytes"
        }
      ],
      "stateMutability": "view"
    },
    {
      "type": "function",
      "name": "entryPoint",
      "inputs": [],
      "outputs": [
        {
          "name": "",
          "type": "address",
          "internalType": "address"
        }
      ],
      "stateMutability": "view"
    },
    {
      "type": "function",
      "name": "getActiveFallbackHandler",
      "inputs": [],
      "outputs": [
        {
          "name": "fallbackHandler",
          "type": "address",
          "internalType": "address"
        }
      ],
      "stateMutability": "view"
    },
    {
      "type": "function",
      "name": "getExecutorsPaginated",
      "inputs": [
        {
          "name": "cursor",
          "type": "address",
          "internalType": "address"
        },
        {
          "name": "size",
          "type": "uint256",
          "internalType": "uint256"
        }
      ],
      "outputs": [
        {
          "name": "array",
          "type": "address[]",
          "internalType": "address[]"
        },
        {
          "name": "next",
          "type": "address",
          "internalType": "address"
        }
      ],
      "stateMutability": "view"
    },
    {
      "type": "function",
      "name": "getValidatorPaginated",
      "inputs": [
        {
          "name": "cursor",
          "type": "address",
          "internalType": "address"
        },
        {
          "name": "size",
          "type": "uint256",
          "internalType": "uint256"
        }
      ],
      "outputs": [
        {
          "name": "array",
          "type": "address[]",
          "internalType": "address[]"
        },
        {
          "name": "next",
          "type": "address",
          "internalType": "address"
        }
      ],
      "stateMutability": "view"
    },
    {
      "type": "function",
      "name": "initMSA",
      "inputs": [
        {
          "name": "_validators",
          "type": "tuple[]",
          "internalType": "struct BootstrapConfig[]",
          "components": [
            {
              "name": "module",
              "type": "address",
              "internalType": "contract IModule"
            },
            {
              "name": "data",
              "type": "bytes",
              "internalType": "bytes"
            }
          ]
        },
        {
          "name": "_executors",
          "type": "tuple[]",
          "internalType": "struct BootstrapConfig[]",
          "components": [
            {
              "name": "module",
              "type": "address",
              "internalType": "contract IModule"
            },
            {
              "name": "data",
              "type": "bytes",
              "internalType": "bytes"
            }
          ]
        },
        {
          "name": "_hook",
          "type": "tuple",
          "internalType": "struct BootstrapConfig",
          "components": [
            {
              "name": "module",
              "type": "address",
              "internalType": "contract IModule"
            },
            {
              "name": "data",
              "type": "bytes",
              "internalType": "bytes"
            }
          ]
        },
        {
          "name": "_fallback",
          "type": "tuple",
          "internalType": "struct BootstrapConfig",
          "components": [
            {
              "name": "module",
              "type": "address",
              "internalType": "contract IModule"
            },
            {
              "name": "data",
              "type": "bytes",
              "internalType": "bytes"
            }
          ]
        }
      ],
      "outputs": [],
      "stateMutability": "nonpayable"
    },
    {
      "type": "function",
      "name": "installExecutor",
      "inputs": [
        {
          "name": "executor",
          "type": "address",
          "internalType": "address"
        },
        {
          "name": "data",
          "type": "bytes",
          "internalType": "bytes"
        }
      ],
      "outputs": [],
      "stateMutability": "nonpayable"
    },
    {
      "type": "function",
      "name": "installFallback",
      "inputs": [
        {
          "name": "fallbackHandler",
          "type": "address",
          "internalType": "address"
        },
        {
          "name": "data",
          "type": "bytes",
          "internalType": "bytes"
        }
      ],
      "outputs": [],
      "stateMutability": "nonpayable"
    },
    {
      "type": "function",
      "name": "installHook",
      "inputs": [
        {
          "name": "hook",
          "type": "address",
          "internalType": "address"
        },
        {
          "name": "data",
          "type": "bytes",
          "internalType": "bytes"
        }
      ],
      "outputs": [],
      "stateMutability": "nonpayable"
    },
    {
      "type": "function",
      "name": "installValidator",
      "inputs": [
        {
          "name": "validator",
          "type": "address",
          "internalType": "address"
        },
        {
          "name": "data",
          "type": "bytes",
          "internalType": "bytes"
        }
      ],
      "outputs": [],
      "stateMutability": "nonpayable"
    },
    {
      "type": "function",
      "name": "isExecutorInstalled",
      "inputs": [
        {
          "name": "executor",
          "type": "address",
          "internalType": "address"
        }
      ],
      "outputs": [
        {
          "name": "",
          "type": "bool",
          "internalType": "bool"
        }
      ],
      "stateMutability": "view"
    },
    {
      "type": "function",
      "name": "isFallbackInstalled",
      "inputs": [
        {
          "name": "fallbackHandler",
          "type": "address",
          "internalType": "address"
        }
      ],
      "outputs": [
        {
          "name": "enabled",
          "type": "bool",
          "internalType": "bool"
        }
      ],
      "stateMutability": "view"
    },
    {
      "type": "function",
      "name": "isHookInstalled",
      "inputs": [
        {
          "name": "hook",
          "type": "address",
          "internalType": "address"
        }
      ],
      "outputs": [
        {
          "name": "isEnabled",
          "type": "bool",
          "internalType": "bool"
        }
      ],
      "stateMutability": "view"
    },
    {
      "type": "function",
      "name": "isValidatorInstalled",
      "inputs": [
        {
          "name": "validator",
          "type": "address",
          "internalType": "address"
        }
      ],
      "outputs": [
        {
          "name": "",
          "type": "bool",
          "internalType": "bool"
        }
      ],
      "stateMutability": "view"
    },
    {
      "type": "function",
      "name": "singleInitMSA",
      "inputs": [
        {
          "name": "validator",
          "type": "address",
          "internalType": "contract IModule"
        },
        {
          "name": "data",
          "type": "bytes",
          "internalType": "bytes"
        }
      ],
      "outputs": [],
      "stateMutability": "nonpayable"
    },
    {
      "type": "function",
      "name": "supportsInterface",
      "inputs": [
        {
          "name": "interfaceID",
          "type": "bytes4",
          "internalType": "bytes4"
        }
      ],
      "outputs": [
        {
          "name": "",
          "type": "bool",
          "internalType": "bool"
        }
      ],
      "stateMutability": "pure"
    },
    {
      "type": "function",
      "name": "uninstallExecutor",
      "inputs": [
        {
          "name": "executor",
          "type": "address",
          "internalType": "address"
        },
        {
          "name": "data",
          "type": "bytes",
          "internalType": "bytes"
        }
      ],
      "outputs": [],
      "stateMutability": "nonpayable"
    },
    {
      "type": "function",
      "name": "uninstallFallback",
      "inputs": [
        {
          "name": "fallbackHandler",
          "type": "address",
          "internalType": "address"
        },
        {
          "name": "data",
          "type": "bytes",
          "internalType": "bytes"
        }
      ],
      "outputs": [],
      "stateMutability": "nonpayable"
    },
    {
      "type": "function",
      "name": "uninstallHook",
      "inputs": [
        {
          "name": "hook",
          "type": "address",
          "internalType": "address"
        },
        {
          "name": "data",
          "type": "bytes",
          "internalType": "bytes"
        }
      ],
      "outputs": [],
      "stateMutability": "nonpayable"
    },
    {
      "type": "function",
      "name": "uninstallValidator",
      "inputs": [
        {
          "name": "validator",
          "type": "address",
          "internalType": "address"
        },
        {
          "name": "data",
          "type": "bytes",
          "internalType": "bytes"
        }
      ],
      "outputs": [],
      "stateMutability": "nonpayable"
    },
    {
      "type": "event",
      "name": "DisableExecutor",
      "inputs": [
        {
          "name": "module",
          "type": "address",
          "indexed": false,
          "internalType": "address"
        }
      ],
      "anonymous": false
    },
    {
      "type": "event",
      "name": "DisableHook",
      "inputs": [
        {
          "name": "module",
          "type": "address",
          "indexed": false,
          "internalType": "address"
        }
      ],
      "anonymous": false
    },
    {
      "type": "event",
      "name": "DisableValidator",
      "inputs": [
        {
          "name": "module",
          "type": "address",
          "indexed": false,
          "internalType": "address"
        }
      ],
      "anonymous": false
    },
    {
      "type": "event",
      "name": "EnableExecutor",
      "inputs": [
        {
          "name": "module",
          "type": "address",
          "indexed": false,
          "internalType": "address"
        }
      ],
      "anonymous": false
    },
    {
      "type": "event",
      "name": "EnableHook",
      "inputs": [
        {
          "name": "module",
          "type": "address",
          "indexed": false,
          "internalType": "address"
        }
      ],
      "anonymous": false
    },
    {
      "type": "event",
      "name": "EnableValidator",
      "inputs": [
        {
          "name": "module",
          "type": "address",
          "indexed": false,
          "internalType": "address"
        }
      ],
      "anonymous": false
    },
    {
      "type": "event",
      "name": "FallbackHandlerChanged",
      "inputs": [
        {
          "name": "handler",
          "type": "address",
          "indexed": false,
          "internalType": "address"
        }
      ],
      "anonymous": false
    },
    {
      "type": "error",
      "name": "AccountAccessUnauthorized",
      "inputs": []
    },
    {
      "type": "error",
      "name": "CannotRemoveLastValidator",
      "inputs": []
    },
    {
      "type": "error",
      "name": "HookPostCheckFailed",
      "inputs": []
    },
    {
      "type": "error",
      "name": "InvalidAddress",
      "inputs": [
        {
          "name": "addr",
          "type": "address",
          "internalType": "address"
        }
      ]
    },
    {
      "type": "error",
      "name": "InvalidModule",
      "inputs": [
        {
          "name": "module",
          "type": "address",
          "internalType": "address"
        }
      ]
    },
    {
      "type": "error",
      "name": "LinkedList_AlreadyInitialized",
      "inputs": []
    },
    {
      "type": "error",
      "name": "LinkedList_EntryAlreadyInList",
      "inputs": [
        {
          "name": "entry",
          "type": "address",
          "internalType": "address"
        }
      ]
    },
    {
      "type": "error",
      "name": "LinkedList_InvalidEntry",
      "inputs": [
        {
          "name": "entry",
          "type": "address",
          "internalType": "address"
        }
      ]
    },
    {
      "type": "error",
      "name": "LinkedList_InvalidPage",
      "inputs": []
    }
  ],
  "bytecode": {
    "object": "0x608060405234801561001057600080fd5b50611b23806100206000396000f3fe608060405234801561001057600080fd5b506004361061012c5760003560e01c80638acf4c6a116100ad578063d8bf2fca11610071578063d8bf2fca1461031e578063d8e2fa1a14610331578063ea5f61d014610344578063f32a366114610357578063fbef70271461036a5761012c565b80638acf4c6a14610295578063b0d691fe146102be578063b2c13ca3146102d8578063b31d43be146102eb578063bd5a01da146102fe5761012c565b806342405d1b116100f457806342405d1b1461022857806348135bf81461023b57806359934cfe1461024e5780636b0d5cc41461026157806385571368146102745761012c565b806301ffc9a714610195578063053c6d98146101be5780630c8aefe5146101d35780630ff2fe98146101e6578063200ff328146101f9575b600080516020611aae83398151915280548061014457005b60408051368101909152366000823760408051601481019091523360601b9052600080366014018382865af19150506101833d60408051918201905290565b3d6000823e81610191573d81fd5b3d81f35b6101a96101a3366004611375565b50600090565b60405190151581526020015b60405180910390f35b6101d16101cc366004611479565b61037d565b005b6101a96101e13660046114c9565b61050c565b6101d16101f4366004611543565b61052e565b6101a96102073660046114c9565b600080516020611aae833981519152546001600160a01b0390811691161490565b6101a96102363660046114c9565b6106f1565b6101d161024936600461163c565b61070c565b6101d161025c36600461163c565b61075a565b6101d161026f36600461163c565b6107a3565b610287610282366004611691565b6107ab565b6040516101b59291906116bd565b600080516020611aae833981519152545b6040516001600160a01b0390911681526020016101b5565b735ff137d4b0fdcd49dca30c7cf57e578a026d27896102a6565b6101a96102e63660046114c9565b6107d6565b6101d16102f936600461163c565b61081a565b61031161030c366004611543565b61095b565b6040516101b59190611770565b6101d161032c36600461163c565b6109e1565b6101d161033f36600461163c565b610ab8565b610287610352366004611691565b610b60565b6101d161036536600461163c565b610b7e565b6101d161037836600461163c565b610bc7565b33735ff137d4b0fdcd49dca30c7cf57e578a026d2789148061039e57503330145b6103bb57604051635629665f60e11b815260040160405180910390fd5b60006103d3600080516020611aae8339815191525490565b90506001600160a01b0381161561046357600080838060200190518101906103fb91906117d0565b91509150809350826001600160a01b0316638a91b0e3836040518263ffffffff1660e01b815260040161042e9190611770565b600060405180830381600087803b15801561044857600080fd5b505af115801561045c573d6000803e3d6000fd5b5050505050505b6040516306d61fe760e41b81526001600160a01b03841690636d61fe709061048f908590600401611770565b600060405180830381600087803b1580156104a957600080fd5b505af11580156104bd573d6000803e3d6000fd5b505050506104ca83610c10565b6040516001600160a01b03841681527fb40551e04c79c5ed1bda94430715b4fbd0748b35cc548419af988aeb0679915f906020015b60405180910390a1505050565b6000600080516020611a8e8339815191526105278184610c5b565b9392505050565b610536610c99565b60005b858110156105b5576105ad8787838181106105565761055661182a565b90506020028101906105689190611840565b6105769060208101906114c9565b8888848181106105885761058861182a565b905060200281019061059a9190611840565b6105a8906020810190611860565b610ccb565b600101610539565b5060005b838110156106775760008585838181106105d5576105d561182a565b90506020028101906105e79190611840565b6105f59060208101906114c9565b6001600160a01b03161461066f5761066f8585838181106106185761061861182a565b905060200281019061062a9190611840565b6106389060208101906114c9565b86868481811061064a5761064a61182a565b905060200281019061065c9190611840565b61066a906020810190611860565b610d91565b6001016105b9565b50600061068760208401846114c9565b6001600160a01b0316146106b7576106b76106a560208401846114c9565b6106b26020850185611860565b610e4d565b60006106c660208301836114c9565b6001600160a01b0316146106e9576106e96106e460208301836114c9565b610c10565b505050505050565b6000600080516020611ace8339815191526105278184610c5b565b33735ff137d4b0fdcd49dca30c7cf57e578a026d2789148061072d57503330145b61074a57604051635629665f60e11b815260040160405180910390fd5b610755838383610ccb565b505050565b33735ff137d4b0fdcd49dca30c7cf57e578a026d2789148061077b57503330145b61079857604051635629665f60e11b815260040160405180910390fd5b610755838383610e4d565b61074a610c99565b60606000600080516020611ace8339815191526107c9818686610f0e565b92509250505b9250929050565b6000816001600160a01b031661080a7f36e05829dd1b9a4411d96a3549582172d7f071c1c0db5c573fcf94eb284316085490565b6001600160a01b03161492915050565b33735ff137d4b0fdcd49dca30c7cf57e578a026d2789148061083b57503330145b61085857604051635629665f60e11b815260040160405180910390fd5b600080516020611ace83398151915260008061087685850186611479565b604051638a91b0e360e01b815291935091506001600160a01b03871690638a91b0e3906108a7908490600401611770565b600060405180830381600087803b1580156108c157600080fd5b505af11580156108d5573d6000803e3d6000fd5b5050505060016001600160a01b0316826001600160a01b03160361090c57604051632c46098f60e21b815260040160405180910390fd5b6109178383886110ab565b6040516001600160a01b03871681527f36a773811aa40c53a642b0596c94174b588d0d1b2b9b6fa6e31c3c30d686163f9060200160405180910390a1505050505050565b606030306001600160a01b0316630ff2fe98898989898989604051602401610988969594939291906119b7565b604051602081830303815290604052915060e01b6020820180516001600160e01b0383818316178352505050506040516020016109c6929190611a13565b60405160208183030381529060405290509695505050505050565b33735ff137d4b0fdcd49dca30c7cf57e578a026d27891480610a0257503330145b610a1f57604051635629665f60e11b815260040160405180910390fd5b600080610a2e83850185611479565b604051638a91b0e360e01b815291935091506001600160a01b03861690638a91b0e390610a5f908490600401611770565b600060405180830381600087803b158015610a7957600080fd5b505af1158015610a8d573d6000803e3d6000fd5b505050506000610aa8600080516020611ace83398151915290565b60010190506109178184886110ab565b33735ff137d4b0fdcd49dca30c7cf57e578a026d27891480610ad957503330145b610af657604051635629665f60e11b815260040160405180910390fd5b604051638a91b0e360e01b81526001600160a01b03841690638a91b0e390610b249085908590600401611a37565b600060405180830381600087803b158015610b3e57600080fd5b505af1158015610b52573d6000803e3d6000fd5b505050506107556000610c10565b60606000600080516020611a8e8339815191526107c9818686610f0e565b33735ff137d4b0fdcd49dca30c7cf57e578a026d27891480610b9f57503330145b610bbc57604051635629665f60e11b815260040160405180910390fd5b610755838383610d91565b33735ff137d4b0fdcd49dca30c7cf57e578a026d27891480610be857503330145b610c0557604051635629665f60e11b815260040160405180910390fd5b610755838383611180565b306001600160a01b03821603610c4957604051634726455360e11b81526001600160a01b03821660048201526024015b60405180910390fd5b600080516020611aae83398151915255565b600060016001600160a01b03831614801590610c9057506001600160a01b038281166000908152602085905260409020541615155b90505b92915050565b600080516020611ace833981519152610cbf600080516020611a8e833981519152611242565b610cc881611242565b50565b6040516306d61fe760e41b8152600080516020611ace833981519152906001600160a01b03851690636d61fe7090610d099086908690600401611a37565b600060405180830381600087803b158015610d2357600080fd5b505af1158015610d37573d6000803e3d6000fd5b50505050610d4e848261129f90919063ffffffff16565b6040516001600160a01b03851681527f2d91d9c220de5aa44766800ef0fe09b060fdd021b142ae4d21ce6a87b066d170906020015b60405180910390a150505050565b6040516306d61fe760e41b8152600080516020611a8e833981519152906001600160a01b03851690636d61fe7090610dcf9086908690600401611a37565b600060405180830381600087803b158015610de957600080fd5b505af1158015610dfd573d6000803e3d6000fd5b50505050610e14848261129f90919063ffffffff16565b6040516001600160a01b03851681527fa94a505d6d06d2648d04f969a277c083b36aacc22be6fc3ab6afbadee18b6eb990602001610d83565b6040516306d61fe760e41b81526001600160a01b03841690636d61fe7090610e7b9085908590600401611a37565b600060405180830381600087803b158015610e9557600080fd5b505af1158015610ea9573d6000803e3d6000fd5b50505050610ed5837f36e05829dd1b9a4411d96a3549582172d7f071c1c0db5c573fcf94eb2843160855565b6040516001600160a01b03841681527f3a856255c5e96932045b28950075b0283c5ac4bc963209e8b2cfb002d24da8f8906020016104ff565b606060006001600160a01b038416600114801590610f315750610f318585610c5b565b15610f5a57604051637c84ecfb60e01b81526001600160a01b0385166004820152602401610c40565b82600003610f7b5760405163f725081760e01b815260040160405180910390fd5b8267ffffffffffffffff811115610f9457610f946113b4565b604051908082528060200260200182016040528015610fbd578160200160208202803683370190505b506001600160a01b03808616600090815260208890526040812054929450911691505b6001600160a01b0382161580159061100257506001600160a01b038216600114155b801561100d57508381105b1561106757818382815181106110255761102561182a565b6001600160a01b03928316602091820292909201810191909152928116600090815292879052604090922054909116908061105f81611a61565b915050610fe0565b6001600160a01b03821660011461109f5782611084600183611a7a565b815181106110945761109461182a565b602002602001015191505b80835250935093915050565b6001600160a01b03811615806110ca57506001600160a01b0381166001145b156110f357604051637c84ecfb60e01b81526001600160a01b0383166004820152602401610c40565b6001600160a01b0382811660009081526020859052604090205481169082161461113b57604051637c84ecfb60e01b81526001600160a01b0382166004820152602401610c40565b6001600160a01b0390811660008181526020949094526040808520805494841686529085208054949093166001600160a01b0319948516179092559092528154169055565b604051638a91b0e360e01b81526001600160a01b03841690638a91b0e3906111ae9085908590600401611a37565b600060405180830381600087803b1580156111c857600080fd5b505af11580156111dc573d6000803e3d6000fd5b5050505061120960007f36e05829dd1b9a4411d96a3549582172d7f071c1c0db5c573fcf94eb2843160855565b6040516001600160a01b03841681527f625311a3e4dadff718f8d52e312c83fea5e767cf0d8780a7d21c9cbfa093a8ab906020016104ff565b60016000908152602082905260409020546001600160a01b03161561127a576040516329e42f3360e11b815260040160405180910390fd5b60016000818152602092909252604090912080546001600160a01b0319169091179055565b6001600160a01b03811615806112be57506001600160a01b0381166001145b156112e757604051637c84ecfb60e01b81526001600160a01b0382166004820152602401610c40565b6001600160a01b03818116600090815260208490526040902054161561132b57604051631034f46960e21b81526001600160a01b0382166004820152602401610c40565b60016000818152602093909352604080842080546001600160a01b039485168087529286208054959091166001600160a01b03199586161790559190935280549091169091179055565b60006020828403121561138757600080fd5b81356001600160e01b03198116811461052757600080fd5b6001600160a01b0381168114610cc857600080fd5b634e487b7160e01b600052604160045260246000fd5b604051601f8201601f1916810167ffffffffffffffff811182821017156113f3576113f36113b4565b604052919050565b600067ffffffffffffffff821115611415576114156113b4565b50601f01601f191660200190565b600082601f83011261143457600080fd5b8135611447611442826113fb565b6113ca565b81815284602083860101111561145c57600080fd5b816020850160208301376000918101602001919091529392505050565b6000806040838503121561148c57600080fd5b82356114978161139f565b9150602083013567ffffffffffffffff8111156114b357600080fd5b6114bf85828601611423565b9150509250929050565b6000602082840312156114db57600080fd5b81356105278161139f565b60008083601f8401126114f857600080fd5b50813567ffffffffffffffff81111561151057600080fd5b6020830191508360208260051b85010111156107cf57600080fd5b60006040828403121561153d57600080fd5b50919050565b6000806000806000806080878903121561155c57600080fd5b863567ffffffffffffffff8082111561157457600080fd5b6115808a838b016114e6565b9098509650602089013591508082111561159957600080fd5b6115a58a838b016114e6565b909650945060408901359150808211156115be57600080fd5b6115ca8a838b0161152b565b935060608901359150808211156115e057600080fd5b506115ed89828a0161152b565b9150509295509295509295565b60008083601f84011261160c57600080fd5b50813567ffffffffffffffff81111561162457600080fd5b6020830191508360208285010111156107cf57600080fd5b60008060006040848603121561165157600080fd5b833561165c8161139f565b9250602084013567ffffffffffffffff81111561167857600080fd5b611684868287016115fa565b9497909650939450505050565b600080604083850312156116a457600080fd5b82356116af8161139f565b946020939093013593505050565b604080825283519082018190526000906020906060840190828701845b828110156116ff5781516001600160a01b0316845292840192908401906001016116da565b5050506001600160a01b039490941660209390930192909252509092915050565b60005b8381101561173b578181015183820152602001611723565b50506000910152565b6000815180845261175c816020860160208601611720565b601f01601f19169290920160200192915050565b602081526000610c906020830184611744565b600082601f83011261179457600080fd5b81516117a2611442826113fb565b8181528460208386010111156117b757600080fd5b6117c8826020830160208701611720565b949350505050565b600080604083850312156117e357600080fd5b825167ffffffffffffffff808211156117fb57600080fd5b61180786838701611783565b9350602085015191508082111561181d57600080fd5b506114bf85828601611783565b634e487b7160e01b600052603260045260246000fd5b60008235603e1983360301811261185657600080fd5b9190910192915050565b6000808335601e1984360301811261187757600080fd5b83018035915067ffffffffffffffff82111561189257600080fd5b6020019150368190038213156107cf57600080fd5b81835281816020850137506000828201602090810191909152601f909101601f19169091010190565b600081356118dd8161139f565b6001600160a01b03168352602082013536839003601e1901811261190057600080fd5b820160208101903567ffffffffffffffff81111561191d57600080fd5b80360382131561192c57600080fd5b604060208601526119416040860182846118a7565b95945050505050565b6000838385526020808601955060208560051b830101846000805b888110156119a957858403601f19018a52823536899003603e1901811261198a578283fd5b611996858a83016118d0565b9a86019a94505091840191600101611965565b509198975050505050505050565b6080815260006119cb60808301888a61194a565b82810360208401526119de81878961194a565b905082810360408401526119f281866118d0565b90508281036060840152611a0681856118d0565b9998505050505050505050565b6001600160a01b03831681526040602082018190526000906117c890830184611744565b6020815260006117c86020830184866118a7565b634e487b7160e01b600052601160045260246000fd5b600060018201611a7357611a73611a4b565b5060010190565b81810381811115610c9357610c93611a4b56fef88ce1fdb7fb1cbd3282e49729100fa3f2d6ee9f797961fe4fb1871cea89ea039c63439e8db454cdf22fd3d05d35ed5ea662f6ebbc519905ab830d38464df094f88ce1fdb7fb1cbd3282e49729100fa3f2d6ee9f797961fe4fb1871cea89ea02a2646970667358221220428d6aef7ae6c5fb8693c5e4ed612e960569d376faa23017fbe87ac39cedf19664736f6c63430008170033",
    "linkReferences": {}
  },
  "methodIdentifiers": {
    "_getInitMSACalldata((address,bytes)[],(address,bytes)[],(address,bytes),(address,bytes))": "bd5a01da",
    "entryPoint()": "b0d691fe",
    "getActiveFallbackHandler()": "8acf4c6a",
    "getExecutorsPaginated(address,uint256)": "ea5f61d0",
    "getValidatorPaginated(address,uint256)": "85571368",
    "initMSA((address,bytes)[],(address,bytes)[],(address,bytes),(address,bytes))": "0ff2fe98",
    "installExecutor(address,bytes)": "f32a3661",
    "installFallback(address,bytes)": "053c6d98",
    "installHook(address,bytes)": "59934cfe",
    "installValidator(address,bytes)": "48135bf8",
    "isExecutorInstalled(address)": "0c8aefe5",
    "isFallbackInstalled(address)": "200ff328",
    "isHookInstalled(address)": "b2c13ca3",
    "isValidatorInstalled(address)": "42405d1b",
    "singleInitMSA(address,bytes)": "6b0d5cc4",
    "supportsInterface(bytes4)": "01ffc9a7",
    "uninstallExecutor(address,bytes)": "d8bf2fca",
    "uninstallFallback(address,bytes)": "d8e2fa1a",
    "uninstallHook(address,bytes)": "fbef7027",
    "uninstallValidator(address,bytes)": "b31d43be"
  },
  "id": 49
}