{
  "abi": [
    {
      "type": "fallback",
      "stateMutability": "payable"
    },
    {
      "type": "receive",
      "stateMutability": "payable"
    },
    {
      "type": "function",
      "name": "accountId",
      "inputs": [],
      "outputs": [
        {
          "name": "",
          "type": "string",
          "internalType": "string"
        }
      ],
      "stateMutability": "view"
    },
    {
      "type": "function",
      "name": "entryPoint",
      "inputs": [],
      "outputs": [
        {
          "name": "",
          "type": "address",
          "internalType": "address"
        }
      ],
      "stateMutability": "view"
    },
    {
      "type": "function",
      "name": "execute",
      "inputs": [
        {
          "name": "mode",
          "type": "bytes32",
          "internalType": "ModeCode"
        },
        {
          "name": "executionCalldata",
          "type": "bytes",
          "internalType": "bytes"
        }
      ],
      "outputs": [],
      "stateMutability": "payable"
    },
    {
      "type": "function",
      "name": "executeFromExecutor",
      "inputs": [
        {
          "name": "mode",
          "type": "bytes32",
          "internalType": "ModeCode"
        },
        {
          "name": "executionCalldata",
          "type": "bytes",
          "internalType": "bytes"
        }
      ],
      "outputs": [
        {
          "name": "returnData",
          "type": "bytes[]",
          "internalType": "bytes[]"
        }
      ],
      "stateMutability": "payable"
    },
    {
      "type": "function",
      "name": "executeUserOp",
      "inputs": [
        {
          "name": "userOp",
          "type": "tuple",
          "internalType": "struct PackedUserOperation",
          "components": [
            {
              "name": "sender",
              "type": "address",
              "internalType": "address"
            },
            {
              "name": "nonce",
              "type": "uint256",
              "internalType": "uint256"
            },
            {
              "name": "initCode",
              "type": "bytes",
              "internalType": "bytes"
            },
            {
              "name": "callData",
              "type": "bytes",
              "internalType": "bytes"
            },
            {
              "name": "accountGasLimits",
              "type": "bytes32",
              "internalType": "bytes32"
            },
            {
              "name": "preVerificationGas",
              "type": "uint256",
              "internalType": "uint256"
            },
            {
              "name": "gasFees",
              "type": "bytes32",
              "internalType": "bytes32"
            },
            {
              "name": "paymasterAndData",
              "type": "bytes",
              "internalType": "bytes"
            },
            {
              "name": "signature",
              "type": "bytes",
              "internalType": "bytes"
            }
          ]
        }
      ],
      "outputs": [],
      "stateMutability": "payable"
    },
    {
      "type": "function",
      "name": "getActiveFallbackHandler",
      "inputs": [
        {
          "name": "functionSig",
          "type": "bytes4",
          "internalType": "bytes4"
        }
      ],
      "outputs": [
        {
          "name": "",
          "type": "tuple",
          "internalType": "struct ModuleManager.FallbackHandler",
          "components": [
            {
              "name": "handler",
              "type": "address",
              "internalType": "address"
            },
            {
              "name": "calltype",
              "type": "bytes1",
              "internalType": "CallType"
            }
          ]
        }
      ],
      "stateMutability": "view"
    },
    {
      "type": "function",
      "name": "getActiveHook",
      "inputs": [],
      "outputs": [
        {
          "name": "hook",
          "type": "address",
          "internalType": "address"
        }
      ],
      "stateMutability": "view"
    },
    {
      "type": "function",
      "name": "getExecutorsPaginated",
      "inputs": [
        {
          "name": "cursor",
          "type": "address",
          "internalType": "address"
        },
        {
          "name": "size",
          "type": "uint256",
          "internalType": "uint256"
        }
      ],
      "outputs": [
        {
          "name": "array",
          "type": "address[]",
          "internalType": "address[]"
        },
        {
          "name": "next",
          "type": "address",
          "internalType": "address"
        }
      ],
      "stateMutability": "view"
    },
    {
      "type": "function",
      "name": "getValidatorPaginated",
      "inputs": [
        {
          "name": "cursor",
          "type": "address",
          "internalType": "address"
        },
        {
          "name": "size",
          "type": "uint256",
          "internalType": "uint256"
        }
      ],
      "outputs": [
        {
          "name": "array",
          "type": "address[]",
          "internalType": "address[]"
        },
        {
          "name": "next",
          "type": "address",
          "internalType": "address"
        }
      ],
      "stateMutability": "view"
    },
    {
      "type": "function",
      "name": "initializeAccount",
      "inputs": [
        {
          "name": "data",
          "type": "bytes",
          "internalType": "bytes"
        }
      ],
      "outputs": [],
      "stateMutability": "payable"
    },
    {
      "type": "function",
      "name": "installModule",
      "inputs": [
        {
          "name": "moduleTypeId",
          "type": "uint256",
          "internalType": "uint256"
        },
        {
          "name": "module",
          "type": "address",
          "internalType": "address"
        },
        {
          "name": "initData",
          "type": "bytes",
          "internalType": "bytes"
        }
      ],
      "outputs": [],
      "stateMutability": "payable"
    },
    {
      "type": "function",
      "name": "isModuleInstalled",
      "inputs": [
        {
          "name": "moduleTypeId",
          "type": "uint256",
          "internalType": "uint256"
        },
        {
          "name": "module",
          "type": "address",
          "internalType": "address"
        },
        {
          "name": "additionalContext",
          "type": "bytes",
          "internalType": "bytes"
        }
      ],
      "outputs": [
        {
          "name": "",
          "type": "bool",
          "internalType": "bool"
        }
      ],
      "stateMutability": "view"
    },
    {
      "type": "function",
      "name": "isValidSignature",
      "inputs": [
        {
          "name": "hash",
          "type": "bytes32",
          "internalType": "bytes32"
        },
        {
          "name": "data",
          "type": "bytes",
          "internalType": "bytes"
        }
      ],
      "outputs": [
        {
          "name": "",
          "type": "bytes4",
          "internalType": "bytes4"
        }
      ],
      "stateMutability": "view"
    },
    {
      "type": "function",
      "name": "supportsExecutionMode",
      "inputs": [
        {
          "name": "mode",
          "type": "bytes32",
          "internalType": "ModeCode"
        }
      ],
      "outputs": [
        {
          "name": "isSupported",
          "type": "bool",
          "internalType": "bool"
        }
      ],
      "stateMutability": "view"
    },
    {
      "type": "function",
      "name": "supportsModule",
      "inputs": [
        {
          "name": "modulTypeId",
          "type": "uint256",
          "internalType": "uint256"
        }
      ],
      "outputs": [
        {
          "name": "",
          "type": "bool",
          "internalType": "bool"
        }
      ],
      "stateMutability": "view"
    },
    {
      "type": "function",
      "name": "uninstallModule",
      "inputs": [
        {
          "name": "moduleTypeId",
          "type": "uint256",
          "internalType": "uint256"
        },
        {
          "name": "module",
          "type": "address",
          "internalType": "address"
        },
        {
          "name": "deInitData",
          "type": "bytes",
          "internalType": "bytes"
        }
      ],
      "outputs": [],
      "stateMutability": "payable"
    },
    {
      "type": "function",
      "name": "validateUserOp",
      "inputs": [
        {
          "name": "userOp",
          "type": "tuple",
          "internalType": "struct PackedUserOperation",
          "components": [
            {
              "name": "sender",
              "type": "address",
              "internalType": "address"
            },
            {
              "name": "nonce",
              "type": "uint256",
              "internalType": "uint256"
            },
            {
              "name": "initCode",
              "type": "bytes",
              "internalType": "bytes"
            },
            {
              "name": "callData",
              "type": "bytes",
              "internalType": "bytes"
            },
            {
              "name": "accountGasLimits",
              "type": "bytes32",
              "internalType": "bytes32"
            },
            {
              "name": "preVerificationGas",
              "type": "uint256",
              "internalType": "uint256"
            },
            {
              "name": "gasFees",
              "type": "bytes32",
              "internalType": "bytes32"
            },
            {
              "name": "paymasterAndData",
              "type": "bytes",
              "internalType": "bytes"
            },
            {
              "name": "signature",
              "type": "bytes",
              "internalType": "bytes"
            }
          ]
        },
        {
          "name": "userOpHash",
          "type": "bytes32",
          "internalType": "bytes32"
        },
        {
          "name": "missingAccountFunds",
          "type": "uint256",
          "internalType": "uint256"
        }
      ],
      "outputs": [
        {
          "name": "validSignature",
          "type": "uint256",
          "internalType": "uint256"
        }
      ],
      "stateMutability": "payable"
    },
    {
      "type": "event",
      "name": "ModuleInstalled",
      "inputs": [
        {
          "name": "moduleTypeId",
          "type": "uint256",
          "indexed": false,
          "internalType": "uint256"
        },
        {
          "name": "module",
          "type": "address",
          "indexed": false,
          "internalType": "address"
        }
      ],
      "anonymous": false
    },
    {
      "type": "event",
      "name": "ModuleUninstalled",
      "inputs": [
        {
          "name": "moduleTypeId",
          "type": "uint256",
          "indexed": false,
          "internalType": "uint256"
        },
        {
          "name": "module",
          "type": "address",
          "indexed": false,
          "internalType": "address"
        }
      ],
      "anonymous": false
    },
    {
      "type": "event",
      "name": "TryExecuteUnsuccessful",
      "inputs": [
        {
          "name": "batchExecutionindex",
          "type": "uint256",
          "indexed": false,
          "internalType": "uint256"
        },
        {
          "name": "result",
          "type": "bytes",
          "indexed": false,
          "internalType": "bytes"
        }
      ],
      "anonymous": false
    },
    {
      "type": "error",
      "name": "AccountAccessUnauthorized",
      "inputs": []
    },
    {
      "type": "error",
      "name": "AccountInitializationFailed",
      "inputs": []
    },
    {
      "type": "error",
      "name": "CannotRemoveLastValidator",
      "inputs": []
    },
    {
      "type": "error",
      "name": "ExecutionFailed",
      "inputs": []
    },
    {
      "type": "error",
      "name": "HookAlreadyInstalled",
      "inputs": [
        {
          "name": "currentHook",
          "type": "address",
          "internalType": "address"
        }
      ]
    },
    {
      "type": "error",
      "name": "HookPostCheckFailed",
      "inputs": []
    },
    {
      "type": "error",
      "name": "InvalidModule",
      "inputs": [
        {
          "name": "module",
          "type": "address",
          "internalType": "address"
        }
      ]
    },
    {
      "type": "error",
      "name": "LinkedList_AlreadyInitialized",
      "inputs": []
    },
    {
      "type": "error",
      "name": "LinkedList_EntryAlreadyInList",
      "inputs": [
        {
          "name": "entry",
          "type": "address",
          "internalType": "address"
        }
      ]
    },
    {
      "type": "error",
      "name": "LinkedList_InvalidEntry",
      "inputs": [
        {
          "name": "entry",
          "type": "address",
          "internalType": "address"
        }
      ]
    },
    {
      "type": "error",
      "name": "LinkedList_InvalidPage",
      "inputs": []
    },
    {
      "type": "error",
      "name": "NoFallbackHandler",
      "inputs": [
        {
          "name": "selector",
          "type": "bytes4",
          "internalType": "bytes4"
        }
      ]
    },
    {
      "type": "error",
      "name": "UnsupportedCallType",
      "inputs": [
        {
          "name": "callType",
          "type": "bytes1",
          "internalType": "CallType"
        }
      ]
    },
    {
      "type": "error",
      "name": "UnsupportedExecType",
      "inputs": [
        {
          "name": "execType",
          "type": "bytes1",
          "internalType": "ExecType"
        }
      ]
    },
    {
      "type": "error",
      "name": "UnsupportedModuleType",
      "inputs": [
        {
          "name": "moduleTypeId",
          "type": "uint256",
          "internalType": "uint256"
        }
      ]
    }
  ],
  "bytecode": {
    "object": "0x608060405234801561001057600080fd5b50613093806100206000396000f3fe6080604052600436106101025760003560e01c80639cfd7cff11610095578063d691c96411610064578063d691c96414610456578063e9ae5c5314610476578063ea5f61d014610489578063eac9b20d146104a9578063f2dc691d1461055f57610109565b80639cfd7cff146103b4578063a71763a814610400578063b0d691fe14610413578063d03c79141461043657610109565b80634b6a1419116100d15780634b6a14191461034d57806372aea6541461036057806385571368146103735780639517e29f146103a157610109565b80630a664dba14610291578063112d3a7d146102c35780631626ba7e146102f357806319822f7c1461032c57610109565b3661010957005b60003560e01c63bc197c81811463f23a6e6182141763150b7a028214171561013557806020526020603cf35b50600080356001600160e01b0319168152600080516020612fde8339815191526020526040902080546001600160a01b03811690600160a01b900460f81b816101a457604051632464e76d60e11b81526001600160e01b03196000351660048201526024015b60405180910390fd5b6101b281607f60f91b61057f565b156102065760408051368101909152366000823760408051601481019091523360601b90526000803660140183865afa90506101f43d60408051918201905290565b3d6000823e81610202573d81fd5b3d81f35b61021181600061057f565b156102545760408051368101909152366000823760408051601481019091523360601b9052600080366014018382875af190506101f43d60408051918201905290565b610266816001600160f81b031961057f565b1561028f573660008037600080366000855af43d6000803e80801561028a573d6000f35b3d6000fd5b005b34801561029d57600080fd5b506102a6610596565b6040516001600160a01b0390911681526020015b60405180910390f35b3480156102cf57600080fd5b506102e36102de36600461274a565b6105b3565b60405190151581526020016102ba565b3480156102ff57600080fd5b5061031361030e3660046127a5565b610649565b6040516001600160e01b031990911681526020016102ba565b61033f61033a366004612809565b61071f565b6040519081526020016102ba565b61028f61035b366004612856565b6107d5565b61028f61036e366004612897565b61085f565b34801561037f57600080fd5b5061039361038e3660046128cb565b61093f565b6040516102ba9291906128f7565b61028f6103af36600461274a565b61096a565b3480156103c057600080fd5b50604080518082018252601b81527f754d53412e616476616e6365642f77697468486f6f6b2e76302e310000000000602082015290516102ba91906129aa565b61028f61040e36600461274a565b610a59565b34801561041f57600080fd5b506f71727de22e5e9d8baf0edac6f37da0326102a6565b34801561044257600080fd5b506102e36104513660046129bd565b610b22565b6104696104643660046127a5565b610bc1565b6040516102ba91906129d6565b61028f6104843660046127a5565b611218565b34801561049557600080fd5b506103936104a43660046128cb565b611686565b3480156104b557600080fd5b506105316104c4366004612a50565b604080518082018252600080825260209182018190526001600160e01b0319939093168352600080516020612fde8339815191528152918190208151808301909252546001600160a01b0381168252600160a01b900460f81b6001600160f81b0319169181019190915290565b6040805182516001600160a01b031681526020928301516001600160f81b03191692810192909252016102ba565b34801561056b57600080fd5b506102e361057a3660046129bd565b6116a4565b6001600160f81b0319828116908216145b92915050565b60006105ae60008051602061301e8339815191525490565b905090565b6000600185036105cd576105c6846116f3565b9050610641565b600285036105de576105c684611715565b6003850361062c576105c66105f583850185612a50565b6001600160e01b0319166000908152600080516020612fde83398151915260205260409020546001600160a01b0386811691161490565b6004850361063d576105c684611730565b5060005b949350505050565b6000806106596014828587612a6d565b61066291612a97565b60601c9050610670816116f3565b61069857604051635c93ff2f60e11b81526001600160a01b038216600482015260240161019b565b6001600160a01b03811663f551e2ee33876106b6876014818b612a6d565b6040518563ffffffff1660e01b81526004016106d59493929190612af3565b602060405180830381865afa1580156106f2573d6000803e3d6000fd5b505050506040513d601f19601f820116820180604052508101906107169190612b25565b95945050505050565b6000816020850135606081901c90610736826116f3565b610745576001935050506107bb565b604051639700320360e01b81526001600160a01b03831690639700320390610773908a908a90600401612b87565b6020604051808303816000875af1158015610792573d6000803e3d6000fd5b505050506040513d601f19601f820116820180604052508101906107b69190612c86565b935050505b80156107cd5760003860003884335af1505b509392505050565b6107dd611762565b6000806107ec83850185612d0c565b915091506000826001600160a01b03168260405161080a9190612d9e565b600060405180830381855af49150503d8060008114610845576040519150601f19603f3d011682016040523d82523d6000602084013e61084a565b606091505b505090508061085857600080fd5b5050505050565b336f71727de22e5e9d8baf0edac6f37da032148061087c57503330145b61089957604051635629665f60e11b815260040160405180910390fd5b3660006108a96060840184612dba565b6108b7916004908290612a6d565b915091506000306001600160a01b031683836040516108d7929190612e00565b600060405180830381855af49150503d8060008114610912576040519150601f19603f3d011682016040523d82523d6000602084013e610917565b606091505b505090508061093957604051632b3f6d1160e21b815260040160405180910390fd5b50505050565b6060600060008051602061303e83398151915261095d818686611794565b92509250505b9250929050565b336f71727de22e5e9d8baf0edac6f37da032148061098757503330145b6109a457604051635629665f60e11b815260040160405180910390fd5b600184036109bc576109b7838383611930565b610a11565b600284036109cf576109b78383836119af565b600384036109e2576109b78383836119c8565b600484036109f5576109b7838383611c9b565b60405163041c38b360e41b81526004810185905260240161019b565b604080518581526001600160a01b03851660208201527fd21d0b289f126c4b473ea641963e766833c2f13866e4ff480abd787c100ef12391015b60405180910390a150505050565b336f71727de22e5e9d8baf0edac6f37da0321480610a7657503330145b610a9357604051635629665f60e11b815260040160405180910390fd5b60018403610aab57610aa6838383611cfe565b610ae4565b60028403610abe57610aa6838383611d58565b60038403610ad157610aa6838383611d76565b600484036109f557610aa68383836120de565b604080518581526001600160a01b03851660208201527f341347516a9de374859dfda710fa4828b2d48cb57d4fbe4c1149612b8e02276e9101610a4b565b600081600881901b610b3882600160f81b61057f565b15610b465760019250610b89565b610b5182600061057f565b15610b5f5760019250610b89565b610b71826001600160f81b031961057f565b15610b7f5760019250610b89565b5060009392505050565b610b9481600061057f565b15610ba25760019250610bba565b610bb081600160f81b61057f565b15610b7f57600192505b5050919050565b6060600080516020612ffe833981519152610bdc8133612151565b610bfb57604051635c93ff2f60e11b815233600482015260240161019b565b6000610c1360008051602061301e8339815191525490565b90506001600160a01b038116610ed35785600881901b610c3782600160f81b61057f565b15610ca65786358701602081019035610c5183600061057f565b15610c6757610c60828261218b565b9650610c9f565b610c7583600160f81b61057f565b15610c8457610c608282612263565b826040516308c3ee0360e11b815260040161019b9190612e10565b5050610ecc565b610cb182600061057f565b15610dff57600080366000610cc68b8b612390565b6040805160018082528183019092529498509296509094509250816020015b6060815260200190600190039081610ce55790505098506000610d08868261057f565b15610d3c57610d19858585856123e1565b8a600081518110610d2c57610d2c612e25565b6020026020010181905250610df5565b610d4a86600160f81b61057f565b15610dda57610d5b85858585612417565b8b600081518110610d6e57610d6e612e25565b6020908102919091010152905080610dd5577fe723f28f104e46b47fd3531f3608374ac226bcf3ddda334a23a266453e0efdb760008b600081518110610db657610db6612e25565b6020026020010151604051610dcc929190612e3b565b60405180910390a15b610df5565b856040516308c3ee0360e11b815260040161019b9190612e10565b5050505050610ecc565b610e11826001600160f81b031961057f565b15610eb1576000610e25601482898b612a6d565b610e2e91612a97565b60601c9050366000610e43896014818d612a6d565b9092509050610e5384600061057f565b15610e6957610e63838383612449565b50610ea9565b610e7784600160f81b61057f565b15610e8e57610e8783838361247d565b5050610ea9565b836040516308c3ee0360e11b815260040161019b9190612e10565b505050610ecc565b81604051632e5bf3f960e21b815260040161019b9190612e10565b505061120f565b604051631057c74d60e11b81526000906001600160a01b038316906320af8e9a90610f0690339085903690600401612e54565b6000604051808303816000875af1158015610f25573d6000803e3d6000fd5b505050506040513d6000823e601f3d908101601f19168201604052610f4d9190810190612e79565b905086600881901b610f6382600160f81b61057f565b15610fb75787358801602081019035610f7d83600061057f565b15610f9357610f8c828261218b565b9750610fb0565b610fa183600160f81b61057f565b15610c8457610f8c8282612263565b505061117f565b610fc282600061057f565b156110f057600080366000610fd78c8c612390565b6040805160018082528183019092529498509296509094509250816020015b6060815260200190600190039081610ff65790505099506000611019868261057f565b1561104d5761102a858585856123e1565b8b60008151811061103d5761103d612e25565b60200260200101819052506110e6565b61105b86600160f81b61057f565b15610dda5761106c85858585612417565b8c60008151811061107f5761107f612e25565b60209081029190910101529050806110e6577fe723f28f104e46b47fd3531f3608374ac226bcf3ddda334a23a266453e0efdb760008c6000815181106110c7576110c7612e25565b60200260200101516040516110dd929190612e3b565b60405180910390a15b505050505061117f565b611102826001600160f81b031961057f565b15610eb15760006111166014828a8c612a6d565b61111f91612a97565b60601c90503660006111348a6014818e612a6d565b909250905061114484600061057f565b1561115a57611154838383612449565b5061117b565b61116884600160f81b61057f565b15610e8e5761117883838361247d565b50505b5050505b5050604051630b9dfbed60e11b81526001600160a01b0383169063173bf7da906111ad9084906004016129aa565b6020604051808303816000875af11580156111cc573d6000803e3d6000fd5b505050506040513d601f19601f820116820180604052508101906111f09190612ee6565b61120d5760405163546b3e6360e01b815260040160405180910390fd5b505b50509392505050565b336f71727de22e5e9d8baf0edac6f37da032148061123557503330145b61125257604051635629665f60e11b815260040160405180910390fd5b600061126a60008051602061301e8339815191525490565b90506001600160a01b03811661140e5783600881901b61128e82600160f81b61057f565b156112e157843585016020810190356112a883600061057f565b156112bd576112b7828261218b565b506112da565b6112cb83600160f81b61057f565b15610c84576112b78282612263565b5050611407565b6112ec82600061057f565b15611378576000803660006113018989612390565b935093509350935061131785600060f81b61057f565b1561132e57611328848484846123e1565b5061136f565b61133c85600160f81b61057f565b156113545761134d84848484612417565b505061136f565b846040516308c3ee0360e11b815260040161019b9190612e10565b50505050611407565b61138a826001600160f81b031961057f565b15610eb157600061139e6014828789612a6d565b6113a791612a97565b60601c90503660006113bc876014818b612a6d565b90925090506113cc84600061057f565b156113e2576113dc838383612449565b50611403565b6113f084600160f81b61057f565b15610e8e5761140083838361247d565b50505b5050505b5050610939565b604051631057c74d60e11b81526000906001600160a01b038316906320af8e9a9061144190339085903690600401612e54565b6000604051808303816000875af1158015611460573d6000803e3d6000fd5b505050506040513d6000823e601f3d908101601f191682016040526114889190810190612e79565b905084600881901b61149e82600160f81b61057f565b156114f157853586016020810190356114b883600061057f565b156114cd576114c7828261218b565b506114ea565b6114db83600160f81b61057f565b15610c84576114c78282612263565b50506115f8565b6114fc82600061057f565b15611569576000803660006115118a8a612390565b935093509350935061152785600060f81b61057f565b1561153e57611538848484846123e1565b50611560565b61154c85600160f81b61057f565b156113545761155d84848484612417565b50505b505050506115f8565b61157b826001600160f81b031961057f565b15610eb157600061158f601482888a612a6d565b61159891612a97565b60601c90503660006115ad886014818c612a6d565b90925090506115bd84600061057f565b156115d3576115cd838383612449565b506115f4565b6115e184600160f81b61057f565b15610e8e576115f183838361247d565b50505b5050505b5050604051630b9dfbed60e11b81526001600160a01b0383169063173bf7da906116269084906004016129aa565b6020604051808303816000875af1158015611645573d6000803e3d6000fd5b505050506040513d601f19601f820116820180604052508101906116699190612ee6565b6108585760405163546b3e6360e01b815260040160405180910390fd5b60606000600080516020612ffe83398151915261095d818686611794565b6000600182036116b657506001919050565b600282036116c657506001919050565b600382036116d657506001919050565b600482036116e657506001919050565b506000919050565b919050565b600060008051602061303e83398151915261170e8184612151565b9392505050565b6000600080516020612ffe83398151915261170e8184612151565b6000816001600160a01b031661175260008051602061301e8339815191525490565b6001600160a01b03161492915050565b60008051602061303e833981519152611788600080516020612ffe8339815191526124ad565b611791816124ad565b50565b606060006001600160a01b0384166001148015906117b757506117b78585612151565b156117e057604051637c84ecfb60e01b81526001600160a01b038516600482015260240161019b565b826000036118015760405163f725081760e01b815260040160405180910390fd5b826001600160401b0381111561181957611819612c9f565b604051908082528060200260200182016040528015611842578160200160208202803683370190505b506001600160a01b03808616600090815260208890526040812054929450911691505b6001600160a01b0382161580159061188757506001600160a01b038216600114155b801561189257508381105b156118ec57818382815181106118aa576118aa612e25565b6001600160a01b0392831660209182029290920181019190915292811660009081529287905260409092205490911690806118e481612f1e565b915050611865565b6001600160a01b0382166001146119245782611909600183612f37565b8151811061191957611919612e25565b602002602001015191505b80835250935093915050565b60008051602061303e833981519152611949818561250a565b6040516306d61fe760e41b81526001600160a01b03851690636d61fe70906119779086908690600401612f4a565b600060405180830381600087803b15801561199157600080fd5b505af11580156119a5573d6000803e3d6000fd5b5050505050505050565b600080516020612ffe833981519152611949818561250a565b60006119d76004828486612a6d565b6119e091612f5e565b90506000838360048181106119f7576119f7612e25565b909101356001600160f81b031916915060009050611a188460058188612a6d565b8080601f016020809104026020016040519081016040528093929190818152602001838380828437600092019190915250929350611a5b92508591506125e09050565b15611aa85760405162461bcd60e51b815260206004820152601e60248201527f46756e6374696f6e2073656c6563746f7220616c726561647920757365640000604482015260640161019b565b6040805180820182526001600160a01b0388811682526001600160f81b031985811660208085019182526001600160e01b031989166000908152600080516020612fde8339815191529091529490942092518354945160f81c600160a01b026001600160a81b0319909516921691909117929092179055611b2a90839061057f565b15611c34576000866001600160a01b0316636d61fe7060e01b83604051602401611b5491906129aa565b60408051601f198184030181529181526020820180516001600160e01b03166001600160e01b0319909416939093179092529051611b929190612d9e565b600060405180830381855af49150503d8060008114611bcd576040519150601f19603f3d011682016040523d82523d6000602084013e611bd2565b606091505b5050905080611c2e5760405162461bcd60e51b815260206004820152602260248201527f46616c6c6261636b2068616e646c6572206661696c656420746f20696e7374616044820152611b1b60f21b606482015260840161019b565b50611c93565b6040516306d61fe760e41b81526001600160a01b03871690636d61fe7090611c609084906004016129aa565b600060405180830381600087803b158015611c7a57600080fd5b505af1158015611c8e573d6000803e3d6000fd5b505050505b505050505050565b6000611cb360008051602061301e8339815191525490565b90506001600160a01b03811615611ce85760405163741cbe0360e01b81526001600160a01b038216600482015260240161019b565b6119498460008051602061301e83398151915255565b60008051602061303e833981519152600080611d1c85850186612d0c565b9092509050611d2c838388612614565b604051638a91b0e360e01b81526001600160a01b03871690638a91b0e390611c609084906004016129aa565b600080516020612ffe833981519152600080611d1c85850186612d0c565b6000611d856004828486612a6d565b611d8e91612f5e565b90506000611d9f8360048187612a6d565b8080601f016020809104026020016040519081016040528093929190818152602001838380828437600092019190915250929350611de292508491506125e09050565b611e2e5760405162461bcd60e51b815260206004820152601a60248201527f46756e6374696f6e2073656c6563746f72206e6f742075736564000000000000604482015260640161019b565b6001600160e01b031982166000908152600080516020612fde83398151915260209081526040918290208251808401909352546001600160a01b03808216808552600160a01b90920460f81b6001600160f81b0319169284019290925290871614611eee5760405162461bcd60e51b815260206004820152602a60248201527f46756e6374696f6e2073656c6563746f72206e6f74207573656420627920746860448201526934b9903430b7323632b960b11b606482015260840161019b565b60208181015160408051808201825260008082528185018181526001600160e01b031989168252600080516020612fde8339815191529095529190912090518154935160f81c600160a01b026001600160a81b03199094166001600160a01b039091161792909217909155611f6b816001600160f81b031961057f565b15612076576000876001600160a01b0316638a91b0e360e01b85604051602401611f9591906129aa565b60408051601f198184030181529181526020820180516001600160e01b03166001600160e01b0319909416939093179092529051611fd39190612d9e565b600060405180830381855af49150503d806000811461200e576040519150601f19603f3d011682016040523d82523d6000602084013e612013565b606091505b50509050806120705760405162461bcd60e51b8152602060048201526024808201527f46616c6c6261636b2068616e646c6572206661696c656420746f20756e696e736044820152631d185b1b60e21b606482015260840161019b565b506120d5565b604051638a91b0e360e01b81526001600160a01b03881690638a91b0e3906120a29086906004016129aa565b600060405180830381600087803b1580156120bc57600080fd5b505af11580156120d0573d6000803e3d6000fd5b505050505b50505050505050565b6120f5600060008051602061301e83398151915255565b604051638a91b0e360e01b81526001600160a01b03841690638a91b0e3906121239085908590600401612f4a565b600060405180830381600087803b15801561213d57600080fd5b505af11580156120d5573d6000803e3d6000fd5b600060016001600160a01b0383161480159061170e5750506001600160a01b03908116600090815260209290925260409091205416151590565b606081806001600160401b038111156121a6576121a6612c9f565b6040519080825280602002602001820160405280156121d957816020015b60608152602001906001900390816121c45790505b50915060005b8181101561225b57368585838181106121fa576121fa612e25565b905060200281019061220c9190612f8c565b905061223561221e6020830183612fa2565b60208301356122306040850185612dba565b6123e1565b84838151811061224757612247612e25565b6020908102919091010152506001016121df565b505092915050565b606081806001600160401b0381111561227e5761227e612c9f565b6040519080825280602002602001820160405280156122b157816020015b606081526020019060019003908161229c5790505b50915060005b8181101561225b57368585838181106122d2576122d2612e25565b90506020028101906122e49190612f8c565b9050600061230f6122f86020840184612fa2565b602084013561230a6040860186612dba565b612417565b86858151811061232157612321612e25565b6020908102919091010152905080612386577fe723f28f104e46b47fd3531f3608374ac226bcf3ddda334a23a266453e0efdb78386858151811061236757612367612e25565b602002602001015160405161237d929190612e3b565b60405180910390a15b50506001016122b7565b60008036816123a26014828789612a6d565b6123ab91612a97565b60601c93506123be603460148789612a6d565b6123c791612fbf565b92506123d68560348189612a6d565b949793965094505050565b60405181838237600038838387895af16123fe573d6000823e3d81fd5b3d8152602081013d6000823e3d01604052949350505050565b604051600090828482376000388483888a5af11591503d8152602081013d6000823e3d81016040525094509492505050565b604051818382376000388383875af4612465573d6000823e3d81fd5b3d8152602081013d6000823e3d016040529392505050565b604051600090828482376000388483885af41591503d8152602081013d6000823e3d810160405250935093915050565b60016000908152602082905260409020546001600160a01b0316156124e5576040516329e42f3360e11b815260040160405180910390fd5b60016000818152602092909252604090912080546001600160a01b0319169091179055565b6001600160a01b038116158061252957506001600160a01b0381166001145b1561255257604051637c84ecfb60e01b81526001600160a01b038216600482015260240161019b565b6001600160a01b03818116600090815260208490526040902054161561259657604051631034f46960e21b81526001600160a01b038216600482015260240161019b565b60016000818152602093909352604080842080546001600160a01b039485168087529286208054959091166001600160a01b03199586161790559190935280549091169091179055565b6001600160e01b0319166000908152600080516020612fde83398151915260205260409020546001600160a01b0316151590565b6001600160a01b038116158061263357506001600160a01b0381166001145b1561265c57604051637c84ecfb60e01b81526001600160a01b038316600482015260240161019b565b6001600160a01b038281166000908152602085905260409020548116908216146126a457604051637c84ecfb60e01b81526001600160a01b038216600482015260240161019b565b6001600160a01b0390811660008181526020949094526040808520805494841686529085208054949093166001600160a01b0319948516179092559092528154169055565b6001600160a01b038116811461179157600080fd5b80356116ee816126e9565b60008083601f84011261271b57600080fd5b5081356001600160401b0381111561273257600080fd5b60208301915083602082850101111561096357600080fd5b6000806000806060858703121561276057600080fd5b843593506020850135612772816126e9565b925060408501356001600160401b0381111561278d57600080fd5b61279987828801612709565b95989497509550505050565b6000806000604084860312156127ba57600080fd5b8335925060208401356001600160401b038111156127d757600080fd5b6127e386828701612709565b9497909650939450505050565b6000610120828403121561280357600080fd5b50919050565b60008060006060848603121561281e57600080fd5b83356001600160401b0381111561283457600080fd5b612840868287016127f0565b9660208601359650604090950135949350505050565b6000806020838503121561286957600080fd5b82356001600160401b0381111561287f57600080fd5b61288b85828601612709565b90969095509350505050565b6000602082840312156128a957600080fd5b81356001600160401b038111156128bf57600080fd5b610641848285016127f0565b600080604083850312156128de57600080fd5b82356128e9816126e9565b946020939093013593505050565b604080825283519082018190526000906020906060840190828701845b828110156129395781516001600160a01b031684529284019290840190600101612914565b5050506001600160a01b039490941660209390930192909252509092915050565b60005b8381101561297557818101518382015260200161295d565b50506000910152565b6000815180845261299681602086016020860161295a565b601f01601f19169290920160200192915050565b60208152600061170e602083018461297e565b6000602082840312156129cf57600080fd5b5035919050565b600060208083016020845280855180835260408601915060408160051b87010192506020870160005b82811015612a2d57603f19888603018452612a1b85835161297e565b945092850192908501906001016129ff565b5092979650505050505050565b6001600160e01b03198116811461179157600080fd5b600060208284031215612a6257600080fd5b813561170e81612a3a565b60008085851115612a7d57600080fd5b83861115612a8a57600080fd5b5050820193919092039150565b6bffffffffffffffffffffffff19813581811691601485101561225b5760149490940360031b84901b1690921692915050565b81835281816020850137506000828201602090810191909152601f909101601f19169091010190565b60018060a01b0385168152836020820152606060408201526000612b1b606083018486612aca565b9695505050505050565b600060208284031215612b3757600080fd5b815161170e81612a3a565b6000808335601e19843603018112612b5957600080fd5b83016020810192503590506001600160401b03811115612b7857600080fd5b80360382131561096357600080fd5b60408152612ba860408201612b9b856126fe565b6001600160a01b03169052565b602083013560608201526000612bc16040850185612b42565b610120806080860152612bd961016086018385612aca565b9250612be86060880188612b42565b9250603f19808786030160a0880152612c02858584612aca565b9450608089013560c088015260a089013560e0880152610100935060c089013584880152612c3360e08a018a612b42565b9250818887030184890152612c49868483612aca565b955050612c58848a018a612b42565b9450925080878603016101408801525050612c74838383612aca565b93505050508260208301529392505050565b600060208284031215612c9857600080fd5b5051919050565b634e487b7160e01b600052604160045260246000fd5b604051601f8201601f191681016001600160401b0381118282101715612cdd57612cdd612c9f565b604052919050565b60006001600160401b03821115612cfe57612cfe612c9f565b50601f01601f191660200190565b60008060408385031215612d1f57600080fd5b8235612d2a816126e9565b915060208301356001600160401b03811115612d4557600080fd5b8301601f81018513612d5657600080fd5b8035612d69612d6482612ce5565b612cb5565b818152866020838501011115612d7e57600080fd5b816020840160208301376000602083830101528093505050509250929050565b60008251612db081846020870161295a565b9190910192915050565b6000808335601e19843603018112612dd157600080fd5b8301803591506001600160401b03821115612deb57600080fd5b60200191503681900382131561096357600080fd5b8183823760009101908152919050565b6001600160f81b031991909116815260200190565b634e487b7160e01b600052603260045260246000fd5b828152604060208201526000610641604083018461297e565b6001600160a01b03841681526040602082018190526000906107169083018486612aca565b600060208284031215612e8b57600080fd5b81516001600160401b03811115612ea157600080fd5b8201601f81018413612eb257600080fd5b8051612ec0612d6482612ce5565b818152856020838501011115612ed557600080fd5b61071682602083016020860161295a565b600060208284031215612ef857600080fd5b8151801515811461170e57600080fd5b634e487b7160e01b600052601160045260246000fd5b600060018201612f3057612f30612f08565b5060010190565b8181038181111561059057610590612f08565b602081526000610641602083018486612aca565b6001600160e01b0319813581811691600485101561225b5760049490940360031b84901b1690921692915050565b60008235605e19833603018112612db057600080fd5b600060208284031215612fb457600080fd5b813561170e816126e9565b8035602083101561059057600019602084900360031b1b169291505056fef88ce1fdb7fb1cbd3282e49729100fa3f2d6ee9f797961fe4fb1871cea89ea04f88ce1fdb7fb1cbd3282e49729100fa3f2d6ee9f797961fe4fb1871cea89ea0336e05829dd1b9a4411d96a3549582172d7f071c1c0db5c573fcf94eb28431608f88ce1fdb7fb1cbd3282e49729100fa3f2d6ee9f797961fe4fb1871cea89ea02a2646970667358221220b69ca58e88ece61b51a7cc1b231739d2ed272ee9fc37ac24dc55bc15333544fc64736f6c63430008180033",
    "linkReferences": {}
  },
  "methodIdentifiers": {
    "accountId()": "9cfd7cff",
    "entryPoint()": "b0d691fe",
    "execute(bytes32,bytes)": "e9ae5c53",
    "executeFromExecutor(bytes32,bytes)": "d691c964",
    "executeUserOp((address,uint256,bytes,bytes,bytes32,uint256,bytes32,bytes,bytes))": "72aea654",
    "getActiveFallbackHandler(bytes4)": "eac9b20d",
    "getActiveHook()": "0a664dba",
    "getExecutorsPaginated(address,uint256)": "ea5f61d0",
    "getValidatorPaginated(address,uint256)": "85571368",
    "initializeAccount(bytes)": "4b6a1419",
    "installModule(uint256,address,bytes)": "9517e29f",
    "isModuleInstalled(uint256,address,bytes)": "112d3a7d",
    "isValidSignature(bytes32,bytes)": "1626ba7e",
    "supportsExecutionMode(bytes32)": "d03c7914",
    "supportsModule(uint256)": "f2dc691d",
    "uninstallModule(uint256,address,bytes)": "a71763a8",
    "validateUserOp((address,uint256,bytes,bytes,bytes32,uint256,bytes32,bytes,bytes),bytes32,uint256)": "19822f7c"
  },
  "id": 45
}