{
  "abi": [
    {
      "type": "fallback",
      "stateMutability": "nonpayable"
    },
    {
      "type": "function",
      "name": "fallbackHandlers",
      "inputs": [
        {
          "name": "account",
          "type": "address",
          "internalType": "address"
        },
        {
          "name": "",
          "type": "bytes4",
          "internalType": "bytes4"
        }
      ],
      "outputs": [
        {
          "name": "fallbackType",
          "type": "uint8",
          "internalType": "enum ExtensibleFallbackHandler.FallBackType"
        },
        {
          "name": "handler",
          "type": "address",
          "internalType": "address"
        }
      ],
      "stateMutability": "view"
    },
    {
      "type": "function",
      "name": "isModuleType",
      "inputs": [
        {
          "name": "isType",
          "type": "uint256",
          "internalType": "uint256"
        }
      ],
      "outputs": [
        {
          "name": "",
          "type": "bool",
          "internalType": "bool"
        }
      ],
      "stateMutability": "pure"
    },
    {
      "type": "function",
      "name": "name",
      "inputs": [],
      "outputs": [
        {
          "name": "",
          "type": "string",
          "internalType": "string"
        }
      ],
      "stateMutability": "pure"
    },
    {
      "type": "function",
      "name": "onInstall",
      "inputs": [
        {
          "name": "data",
          "type": "bytes",
          "internalType": "bytes"
        }
      ],
      "outputs": [],
      "stateMutability": "nonpayable"
    },
    {
      "type": "function",
      "name": "onUninstall",
      "inputs": [
        {
          "name": "data",
          "type": "bytes",
          "internalType": "bytes"
        }
      ],
      "outputs": [],
      "stateMutability": "nonpayable"
    },
    {
      "type": "function",
      "name": "setFunctionSig",
      "inputs": [
        {
          "name": "params",
          "type": "tuple",
          "internalType": "struct ExtensibleFallbackHandler.Params",
          "components": [
            {
              "name": "selector",
              "type": "bytes4",
              "internalType": "bytes4"
            },
            {
              "name": "fallbackType",
              "type": "uint8",
              "internalType": "enum ExtensibleFallbackHandler.FallBackType"
            },
            {
              "name": "handler",
              "type": "address",
              "internalType": "address"
            }
          ]
        }
      ],
      "outputs": [],
      "stateMutability": "nonpayable"
    },
    {
      "type": "function",
      "name": "version",
      "inputs": [],
      "outputs": [
        {
          "name": "",
          "type": "string",
          "internalType": "string"
        }
      ],
      "stateMutability": "pure"
    },
    {
      "type": "event",
      "name": "RemovedFunctionSelector",
      "inputs": [
        {
          "name": "account",
          "type": "address",
          "indexed": true,
          "internalType": "address"
        },
        {
          "name": "selector",
          "type": "bytes4",
          "indexed": false,
          "internalType": "bytes4"
        }
      ],
      "anonymous": false
    },
    {
      "type": "event",
      "name": "SetFunctionSig",
      "inputs": [
        {
          "name": "account",
          "type": "address",
          "indexed": true,
          "internalType": "address"
        },
        {
          "name": "selector",
          "type": "bytes4",
          "indexed": false,
          "internalType": "bytes4"
        },
        {
          "name": "fallbackType",
          "type": "uint8",
          "indexed": false,
          "internalType": "enum ExtensibleFallbackHandler.FallBackType"
        },
        {
          "name": "handler",
          "type": "address",
          "indexed": false,
          "internalType": "address"
        }
      ],
      "anonymous": false
    },
    {
      "type": "error",
      "name": "ERC2771Unauthorized",
      "inputs": []
    }
  ],
  "bytecode": {
    "object": "0x608060405234801561001057600080fd5b50610a54806100206000396000f3fe608060405234801561001057600080fd5b506004361061007d5760003560e01c80638a91b0e31161005b5780638a91b0e314610378578063a81fca721461038a578063cad1f3a01461039d578063ecd05961146103e65761007d565b806306fdde03146102f757806354fd4d50146103425780636d61fe7014610363575b600036606060188210156100d85760405162461bcd60e51b815260206004820152601760248201527f696e76616c6964206d6574686f642073656c6563746f7200000000000000000060448201526064015b60405180910390fd5b336000908152602081815260408083206001600160e01b0319843516845290915280822081518083019092528054829060ff16600181111561011c5761011c610562565b600181111561012d5761012d610562565b815290546001600160a01b0361010090910481166020928301529082015191925060131936013560601c91166101965760405162461bcd60e51b815260206004820152600e60248201526d125b9d985b1a590813595d1a1bd960921b60448201526064016100cf565b6000825160018111156101ab576101ab610562565b0361024e5760208201516001600160a01b03166325d6803f338360008080366101d5601482610578565b926101e29392919061059f565b6040518663ffffffff1660e01b81526004016102029594939291906105c9565b600060405180830381865afa15801561021f573d6000803e3d6000fd5b505050506040513d6000823e601f3d908101601f191682016040526102479190810190610688565b92506102ea565b60208201516001600160a01b03166325d6803f33836000808036610273601482610578565b926102809392919061059f565b6040518663ffffffff1660e01b81526004016102a09594939291906105c9565b6000604051808303816000875af11580156102bf573d6000803e3d6000fd5b505050506040513d6000823e601f3d908101601f191682016040526102e79190810190610688565b92505b5050915050805190602001f35b60408051808201909152601981527f457874656e7369626c6546616c6c6261636b48616e646c65720000000000000060208201525b604051610339919061071c565b60405180910390f35b6040805180820190915260058152640312e302e360dc1b602082015261032c565b61037661037136600461074f565b61040a565b005b61037661038636600461074f565b5050565b61037661039836600461086a565b610467565b6103d86103ab36600461088d565b600060208181529281526040808220909352908152205460ff81169061010090046001600160a01b031682565b6040516103399291906108e2565b6103fa6103f4366004610908565b60031490565b6040519015158152602001610339565b6000819003610417575050565b600061042582840184610921565b805190915060005b81811015610460576104583384838151811061044b5761044b6109d1565b6020026020010151610474565b60010161042d565b5050505050565b6104713382610474565b50565b60405180604001604052808260200151600181111561049557610495610562565b81526040808401516001600160a01b039081166020938401528516600090815280835281812085516001600160e01b0319168252909252902081518154829060ff1916600183818111156104eb576104eb610562565b02179055506020918201518154610100600160a81b0319166101006001600160a01b0392831602179091558251918301516040808501519051928616937fe77ab6b9b19bf67d57dc56c9a8aaabfe43bdf94594a6c248d6e135cf719205bc93610556939192906109e7565b60405180910390a25050565b634e487b7160e01b600052602160045260246000fd5b8181038181111561059957634e487b7160e01b600052601160045260246000fd5b92915050565b600080858511156105af57600080fd5b838611156105bc57600080fd5b5050820193919092039150565b6001600160a01b038681168252851660208201526040810184905260806060820181905281018290526000828460a0840137600060a0848401015260a0601f19601f85011683010190509695505050505050565b634e487b7160e01b600052604160045260246000fd5b604051601f8201601f1916810167ffffffffffffffff8111828210171561065c5761065c61061d565b604052919050565b60005b8381101561067f578181015183820152602001610667565b50506000910152565b60006020828403121561069a57600080fd5b815167ffffffffffffffff808211156106b257600080fd5b818401915084601f8301126106c657600080fd5b8151818111156106d8576106d861061d565b6106eb601f8201601f1916602001610633565b915080825285602082850101111561070257600080fd5b610713816020840160208601610664565b50949350505050565b602081526000825180602084015261073b816040850160208701610664565b601f01601f19169190910160400192915050565b6000806020838503121561076257600080fd5b823567ffffffffffffffff8082111561077a57600080fd5b818501915085601f83011261078e57600080fd5b81358181111561079d57600080fd5b8660208285010111156107af57600080fd5b60209290920196919550909350505050565b80356001600160e01b0319811681146107d957600080fd5b919050565b80356001600160a01b03811681146107d957600080fd5b60006060828403121561080757600080fd5b6040516060810181811067ffffffffffffffff8211171561082a5761082a61061d565b604052905080610839836107c1565b815260208301356002811061084d57600080fd5b602082015261085e604084016107de565b60408201525092915050565b60006060828403121561087c57600080fd5b61088683836107f5565b9392505050565b600080604083850312156108a057600080fd5b6108a9836107de565b91506108b7602084016107c1565b90509250929050565b600281106108de57634e487b7160e01b600052602160045260246000fd5b9052565b604081016108f082856108c0565b6001600160a01b039290921660209190910152919050565b60006020828403121561091a57600080fd5b5035919050565b6000602080838503121561093457600080fd5b823567ffffffffffffffff8082111561094c57600080fd5b818501915085601f83011261096057600080fd5b8135818111156109725761097261061d565b610980848260051b01610633565b8181528481019250606091820284018501918883111561099f57600080fd5b938501935b828510156109c5576109b689866107f5565b845293840193928501926109a4565b50979650505050505050565b634e487b7160e01b600052603260045260246000fd5b6001600160e01b03198416815260608101610a0560208301856108c0565b6001600160a01b0392909216604091909101529291505056fea26469706673582212207cb1e4998a2954360c0e7e2f1de010f016b4a79475a34e1580b2b9ef0a41db7c64736f6c63430008170033",
    "linkReferences": {}
  },
  "methodIdentifiers": {
    "fallbackHandlers(address,bytes4)": "cad1f3a0",
    "isModuleType(uint256)": "ecd05961",
    "name()": "06fdde03",
    "onInstall(bytes)": "6d61fe70",
    "onUninstall(bytes)": "8a91b0e3",
    "setFunctionSig((bytes4,uint8,address))": "a81fca72",
    "version()": "54fd4d50"
  },
  "id": 13
}