{
  "abi": [
    {
      "type": "fallback",
      "stateMutability": "nonpayable"
    },
    {
      "type": "receive",
      "stateMutability": "payable"
    },
    {
      "type": "function",
      "name": "entryPoint",
      "inputs": [],
      "outputs": [
        {
          "name": "",
          "type": "address",
          "internalType": "address"
        }
      ],
      "stateMutability": "view"
    },
    {
      "type": "function",
      "name": "execute",
      "inputs": [
        {
          "name": "target",
          "type": "address",
          "internalType": "address"
        },
        {
          "name": "value",
          "type": "uint256",
          "internalType": "uint256"
        },
        {
          "name": "callData",
          "type": "bytes",
          "internalType": "bytes"
        }
      ],
      "outputs": [
        {
          "name": "result",
          "type": "bytes",
          "internalType": "bytes"
        }
      ],
      "stateMutability": "payable"
    },
    {
      "type": "function",
      "name": "executeBatch",
      "inputs": [
        {
          "name": "executions",
          "type": "tuple[]",
          "internalType": "struct IExecution.Execution[]",
          "components": [
            {
              "name": "target",
              "type": "address",
              "internalType": "address"
            },
            {
              "name": "value",
              "type": "uint256",
              "internalType": "uint256"
            },
            {
              "name": "callData",
              "type": "bytes",
              "internalType": "bytes"
            }
          ]
        }
      ],
      "outputs": [
        {
          "name": "result",
          "type": "bytes[]",
          "internalType": "bytes[]"
        }
      ],
      "stateMutability": "payable"
    },
    {
      "type": "function",
      "name": "executeBatchFromExecutor",
      "inputs": [
        {
          "name": "executions",
          "type": "tuple[]",
          "internalType": "struct IExecution.Execution[]",
          "components": [
            {
              "name": "target",
              "type": "address",
              "internalType": "address"
            },
            {
              "name": "value",
              "type": "uint256",
              "internalType": "uint256"
            },
            {
              "name": "callData",
              "type": "bytes",
              "internalType": "bytes"
            }
          ]
        }
      ],
      "outputs": [
        {
          "name": "returnDatas",
          "type": "bytes[]",
          "internalType": "bytes[]"
        }
      ],
      "stateMutability": "payable"
    },
    {
      "type": "function",
      "name": "executeDelegateCall",
      "inputs": [
        {
          "name": "target",
          "type": "address",
          "internalType": "address"
        },
        {
          "name": "callData",
          "type": "bytes",
          "internalType": "bytes"
        }
      ],
      "outputs": [
        {
          "name": "result",
          "type": "bytes",
          "internalType": "bytes"
        }
      ],
      "stateMutability": "payable"
    },
    {
      "type": "function",
      "name": "executeDelegateCallFromExecutor",
      "inputs": [
        {
          "name": "target",
          "type": "address",
          "internalType": "address"
        },
        {
          "name": "callData",
          "type": "bytes",
          "internalType": "bytes"
        }
      ],
      "outputs": [
        {
          "name": "",
          "type": "bytes",
          "internalType": "bytes"
        }
      ],
      "stateMutability": "payable"
    },
    {
      "type": "function",
      "name": "executeFromExecutor",
      "inputs": [
        {
          "name": "target",
          "type": "address",
          "internalType": "address"
        },
        {
          "name": "value",
          "type": "uint256",
          "internalType": "uint256"
        },
        {
          "name": "callData",
          "type": "bytes",
          "internalType": "bytes"
        }
      ],
      "outputs": [
        {
          "name": "returnData",
          "type": "bytes",
          "internalType": "bytes"
        }
      ],
      "stateMutability": "payable"
    },
    {
      "type": "function",
      "name": "getExecutorsPaginated",
      "inputs": [
        {
          "name": "cursor",
          "type": "address",
          "internalType": "address"
        },
        {
          "name": "size",
          "type": "uint256",
          "internalType": "uint256"
        }
      ],
      "outputs": [
        {
          "name": "array",
          "type": "address[]",
          "internalType": "address[]"
        },
        {
          "name": "next",
          "type": "address",
          "internalType": "address"
        }
      ],
      "stateMutability": "view"
    },
    {
      "type": "function",
      "name": "getValidatorPaginated",
      "inputs": [
        {
          "name": "cursor",
          "type": "address",
          "internalType": "address"
        },
        {
          "name": "size",
          "type": "uint256",
          "internalType": "uint256"
        }
      ],
      "outputs": [
        {
          "name": "array",
          "type": "address[]",
          "internalType": "address[]"
        },
        {
          "name": "next",
          "type": "address",
          "internalType": "address"
        }
      ],
      "stateMutability": "view"
    },
    {
      "type": "function",
      "name": "initializeAccount",
      "inputs": [
        {
          "name": "data",
          "type": "bytes",
          "internalType": "bytes"
        }
      ],
      "outputs": [],
      "stateMutability": "nonpayable"
    },
    {
      "type": "function",
      "name": "installExecutor",
      "inputs": [
        {
          "name": "executor",
          "type": "address",
          "internalType": "address"
        },
        {
          "name": "data",
          "type": "bytes",
          "internalType": "bytes"
        }
      ],
      "outputs": [],
      "stateMutability": "nonpayable"
    },
    {
      "type": "function",
      "name": "installFallback",
      "inputs": [
        {
          "name": "fallbackHandler",
          "type": "address",
          "internalType": "address"
        },
        {
          "name": "data",
          "type": "bytes",
          "internalType": "bytes"
        }
      ],
      "outputs": [],
      "stateMutability": "nonpayable"
    },
    {
      "type": "function",
      "name": "installHook",
      "inputs": [
        {
          "name": "hook",
          "type": "address",
          "internalType": "address"
        },
        {
          "name": "data",
          "type": "bytes",
          "internalType": "bytes"
        }
      ],
      "outputs": [],
      "stateMutability": "nonpayable"
    },
    {
      "type": "function",
      "name": "installValidator",
      "inputs": [
        {
          "name": "validator",
          "type": "address",
          "internalType": "address"
        },
        {
          "name": "data",
          "type": "bytes",
          "internalType": "bytes"
        }
      ],
      "outputs": [],
      "stateMutability": "nonpayable"
    },
    {
      "type": "function",
      "name": "isExecutorInstalled",
      "inputs": [
        {
          "name": "executor",
          "type": "address",
          "internalType": "address"
        }
      ],
      "outputs": [
        {
          "name": "",
          "type": "bool",
          "internalType": "bool"
        }
      ],
      "stateMutability": "view"
    },
    {
      "type": "function",
      "name": "isFallbackInstalled",
      "inputs": [
        {
          "name": "fallbackHandler",
          "type": "address",
          "internalType": "address"
        }
      ],
      "outputs": [
        {
          "name": "enabled",
          "type": "bool",
          "internalType": "bool"
        }
      ],
      "stateMutability": "view"
    },
    {
      "type": "function",
      "name": "isHookInstalled",
      "inputs": [
        {
          "name": "hook",
          "type": "address",
          "internalType": "address"
        }
      ],
      "outputs": [
        {
          "name": "isEnabled",
          "type": "bool",
          "internalType": "bool"
        }
      ],
      "stateMutability": "view"
    },
    {
      "type": "function",
      "name": "isValidSignature",
      "inputs": [
        {
          "name": "hash",
          "type": "bytes32",
          "internalType": "bytes32"
        },
        {
          "name": "data",
          "type": "bytes",
          "internalType": "bytes"
        }
      ],
      "outputs": [
        {
          "name": "",
          "type": "bytes4",
          "internalType": "bytes4"
        }
      ],
      "stateMutability": "view"
    },
    {
      "type": "function",
      "name": "isValidatorInstalled",
      "inputs": [
        {
          "name": "validator",
          "type": "address",
          "internalType": "address"
        }
      ],
      "outputs": [
        {
          "name": "",
          "type": "bool",
          "internalType": "bool"
        }
      ],
      "stateMutability": "view"
    },
    {
      "type": "function",
      "name": "supportsInterface",
      "inputs": [
        {
          "name": "interfaceId",
          "type": "bytes4",
          "internalType": "bytes4"
        }
      ],
      "outputs": [
        {
          "name": "",
          "type": "bool",
          "internalType": "bool"
        }
      ],
      "stateMutability": "pure"
    },
    {
      "type": "function",
      "name": "uninstallExecutor",
      "inputs": [
        {
          "name": "executor",
          "type": "address",
          "internalType": "address"
        },
        {
          "name": "data",
          "type": "bytes",
          "internalType": "bytes"
        }
      ],
      "outputs": [],
      "stateMutability": "nonpayable"
    },
    {
      "type": "function",
      "name": "uninstallFallback",
      "inputs": [
        {
          "name": "",
          "type": "address",
          "internalType": "address"
        },
        {
          "name": "data",
          "type": "bytes",
          "internalType": "bytes"
        }
      ],
      "outputs": [],
      "stateMutability": "nonpayable"
    },
    {
      "type": "function",
      "name": "uninstallHook",
      "inputs": [
        {
          "name": "hook",
          "type": "address",
          "internalType": "address"
        },
        {
          "name": "data",
          "type": "bytes",
          "internalType": "bytes"
        }
      ],
      "outputs": [],
      "stateMutability": "nonpayable"
    },
    {
      "type": "function",
      "name": "uninstallValidator",
      "inputs": [
        {
          "name": "validator",
          "type": "address",
          "internalType": "address"
        },
        {
          "name": "data",
          "type": "bytes",
          "internalType": "bytes"
        }
      ],
      "outputs": [],
      "stateMutability": "nonpayable"
    },
    {
      "type": "function",
      "name": "validateUserOp",
      "inputs": [
        {
          "name": "userOp",
          "type": "tuple",
          "internalType": "struct IERC4337.UserOperation",
          "components": [
            {
              "name": "sender",
              "type": "address",
              "internalType": "address"
            },
            {
              "name": "nonce",
              "type": "uint256",
              "internalType": "uint256"
            },
            {
              "name": "initCode",
              "type": "bytes",
              "internalType": "bytes"
            },
            {
              "name": "callData",
              "type": "bytes",
              "internalType": "bytes"
            },
            {
              "name": "callGasLimit",
              "type": "uint256",
              "internalType": "uint256"
            },
            {
              "name": "verificationGasLimit",
              "type": "uint256",
              "internalType": "uint256"
            },
            {
              "name": "preVerificationGas",
              "type": "uint256",
              "internalType": "uint256"
            },
            {
              "name": "maxFeePerGas",
              "type": "uint256",
              "internalType": "uint256"
            },
            {
              "name": "maxPriorityFeePerGas",
              "type": "uint256",
              "internalType": "uint256"
            },
            {
              "name": "paymasterAndData",
              "type": "bytes",
              "internalType": "bytes"
            },
            {
              "name": "signature",
              "type": "bytes",
              "internalType": "bytes"
            }
          ]
        },
        {
          "name": "userOpHash",
          "type": "bytes32",
          "internalType": "bytes32"
        },
        {
          "name": "missingAccountFunds",
          "type": "uint256",
          "internalType": "uint256"
        }
      ],
      "outputs": [
        {
          "name": "validSignature",
          "type": "uint256",
          "internalType": "uint256"
        }
      ],
      "stateMutability": "payable"
    },
    {
      "type": "event",
      "name": "DisableExecutor",
      "inputs": [
        {
          "name": "module",
          "type": "address",
          "indexed": false,
          "internalType": "address"
        }
      ],
      "anonymous": false
    },
    {
      "type": "event",
      "name": "DisableHook",
      "inputs": [
        {
          "name": "module",
          "type": "address",
          "indexed": false,
          "internalType": "address"
        }
      ],
      "anonymous": false
    },
    {
      "type": "event",
      "name": "DisableValidator",
      "inputs": [
        {
          "name": "module",
          "type": "address",
          "indexed": false,
          "internalType": "address"
        }
      ],
      "anonymous": false
    },
    {
      "type": "event",
      "name": "EnableExecutor",
      "inputs": [
        {
          "name": "module",
          "type": "address",
          "indexed": false,
          "internalType": "address"
        }
      ],
      "anonymous": false
    },
    {
      "type": "event",
      "name": "EnableHook",
      "inputs": [
        {
          "name": "module",
          "type": "address",
          "indexed": false,
          "internalType": "address"
        }
      ],
      "anonymous": false
    },
    {
      "type": "event",
      "name": "EnableValidator",
      "inputs": [
        {
          "name": "module",
          "type": "address",
          "indexed": false,
          "internalType": "address"
        }
      ],
      "anonymous": false
    },
    {
      "type": "event",
      "name": "FallbackHandlerChanged",
      "inputs": [
        {
          "name": "handler",
          "type": "address",
          "indexed": false,
          "internalType": "address"
        }
      ],
      "anonymous": false
    },
    {
      "type": "error",
      "name": "AccountAccessUnauthorized",
      "inputs": []
    },
    {
      "type": "error",
      "name": "CannotRemoveLastValidator",
      "inputs": []
    },
    {
      "type": "error",
      "name": "HookAlreadyInstalled",
      "inputs": [
        {
          "name": "currentHook",
          "type": "address",
          "internalType": "address"
        }
      ]
    },
    {
      "type": "error",
      "name": "HookPostCheckFailed",
      "inputs": []
    },
    {
      "type": "error",
      "name": "InvalidAddress",
      "inputs": [
        {
          "name": "addr",
          "type": "address",
          "internalType": "address"
        }
      ]
    },
    {
      "type": "error",
      "name": "InvalidModule",
      "inputs": [
        {
          "name": "module",
          "type": "address",
          "internalType": "address"
        }
      ]
    },
    {
      "type": "error",
      "name": "LinkedList_AlreadyInitialized",
      "inputs": []
    },
    {
      "type": "error",
      "name": "LinkedList_EntryAlreadyInList",
      "inputs": [
        {
          "name": "entry",
          "type": "address",
          "internalType": "address"
        }
      ]
    },
    {
      "type": "error",
      "name": "LinkedList_InvalidEntry",
      "inputs": [
        {
          "name": "entry",
          "type": "address",
          "internalType": "address"
        }
      ]
    },
    {
      "type": "error",
      "name": "LinkedList_InvalidPage",
      "inputs": []
    },
    {
      "type": "error",
      "name": "Unsupported",
      "inputs": []
    },
    {
      "type": "error",
      "name": "fallbackHandlerAlreadyInstalled",
      "inputs": [
        {
          "name": "currentHandler",
          "type": "address",
          "internalType": "address"
        }
      ]
    }
  ],
  "bytecode": {
    "object": "0x608060405234801561001057600080fd5b50612b12806100206000396000f3fe60806040526004361061016a5760003560e01c80636613e1ed116100d1578063b61d27f61161008a578063d8e2fa1a11610064578063d8e2fa1a146104a1578063ea5f61d0146104c1578063f32a3661146104e1578063fbef70271461050157610171565b8063b61d27f61461045b578063b68df16d1461046e578063d8bf2fca1461048157610171565b80636613e1ed1461039857806385571368146103ab578063899764e6146103d9578063b0d691fe146103ec578063b2c13ca31461041b578063b31d43be1461043b57610171565b80633a871cdd116101235780633a871cdd146102d757806342405d1b146102f857806348135bf8146103185780634899c131146103385780634b6a14191461035857806359934cfe1461037857610171565b806301ffc9a7146101e7578063053c6d981461021c5780630c8aefe51461023e5780631626ba7e1461025e578063200ff3281461029757806334fcd5be146102b757610171565b3661017157005b34801561017d57600080fd5b50600080516020612a9d83398151915280548061019657005b60408051368101909152366000823760408051601481019091523360601b9052600080366014018382865af19150506101d53d60408051918201905290565b3d6000823e816101e3573d81fd5b3d81f35b3480156101f357600080fd5b50610207610202366004612187565b610521565b60405190151581526020015b60405180910390f35b34801561022857600080fd5b5061023c61023736600461220a565b61054c565b005b34801561024a57600080fd5b5061020761025936600461225e565b61062a565b34801561026a57600080fd5b5061027e61027936600461227b565b61064c565b6040516001600160e01b03199091168152602001610213565b3480156102a357600080fd5b506102076102b236600461225e565b610661565b6102ca6102c53660046122ad565b610691565b6040516102139190612371565b6102ea6102e53660046123d5565b610828565b604051908152602001610213565b34801561030457600080fd5b5061020761031336600461225e565b6108e1565b34801561032457600080fd5b5061023c61033336600461220a565b6108fc565b61034b610346366004612428565b61094a565b6040516102139190612483565b34801561036457600080fd5b5061023c610373366004612496565b610ae2565b34801561038457600080fd5b5061023c61039336600461220a565b610bb8565b61034b6103a636600461259a565b610c01565b3480156103b757600080fd5b506103cb6103c63660046125e9565b610d7a565b604051610213929190612615565b6102ca6103e73660046122ad565b610da5565b3480156103f857600080fd5b50604051735ff137d4b0fdcd49dca30c7cf57e578a026d27898152602001610213565b34801561042757600080fd5b5061020761043636600461225e565b610ecd565b34801561044757600080fd5b5061023c61045636600461220a565b610eff565b61034b610469366004612428565b611010565b61034b61047c36600461220a565b6111aa565b34801561048d57600080fd5b5061023c61049c36600461220a565b611342565b3480156104ad57600080fd5b5061023c6104bc36600461220a565b611419565b3480156104cd57600080fd5b506103cb6104dc3660046125e9565b611461565b3480156104ed57600080fd5b5061023c6104fc36600461220a565b61147f565b34801561050d57600080fd5b5061023c61051c36600461220a565b6114c8565b60006001600160e01b0319821663085e803d60e11b1480610546575061054682611511565b92915050565b33735ff137d4b0fdcd49dca30c7cf57e578a026d2789148061056d57503330145b61058a57604051635629665f60e11b815260040160405180910390fd5b60006105a2600080516020612a9d8339815191525490565b90506001600160a01b038116156105dc576040516303f1500160e11b81526001600160a01b03821660048201526024015b60405180910390fd5b6105e784848461159c565b6040516001600160a01b03851681527fb40551e04c79c5ed1bda94430715b4fbd0748b35cc548419af988aeb0679915f906020015b60405180910390a150505050565b6000600080516020612a5d8339815191526106458184611605565b9392505050565b600061065984848461163f565b949350505050565b60008061067a600080516020612a9d8339815191525490565b6001600160a01b0390811693169290921492915050565b606033735ff137d4b0fdcd49dca30c7cf57e578a026d278914806106b457503330145b6106d157604051635629665f60e11b815260040160405180910390fd5b60006106e9600080516020612a7d8339815191525490565b90506001600160a01b03811661070a576107038484611715565b9150610821565b604051631057c74d60e11b81526000906001600160a01b038316906320af8e9a9061073d903390859036906004016126a1565b6000604051808303816000875af115801561075c573d6000803e3d6000fd5b505050506040513d6000823e601f3d908101601f1916820160405261078491908101906126c6565b90506107908585611715565b604051630b9dfbed60e11b81529093506001600160a01b0383169063173bf7da906107bf908490600401612483565b6020604051808303816000875af11580156107de573d6000803e3d6000fd5b505050506040513d601f19601f820116820180604052508101906108029190612733565b61081f5760405163546b3e6360e01b815260040160405180910390fd5b505b5092915050565b6000816020850135606081901c9061083f826108e1565b61084e576000935050506108c7565b60405160016206524760e11b031981526001600160a01b0383169063fff35b729061087f908a908a9060040161279a565b6020604051808303816000875af115801561089e573d6000803e3d6000fd5b505050506040513d601f19601f820116820180604052508101906108c291906128b3565b935050505b80156108d95760003860003884335af1505b509392505050565b6000600080516020612abd8339815191526106458184611605565b33735ff137d4b0fdcd49dca30c7cf57e578a026d2789148061091d57503330145b61093a57604051635629665f60e11b815260040160405180910390fd5b6109458383836117e5565b505050565b6060600080516020612a5d8339815191526109658133611605565b61098457604051635c93ff2f60e11b81523360048201526024016105d3565b600061099c600080516020612a7d8339815191525490565b90506001600160a01b0381166109bf576109b8878787876118a1565b9250610ad8565b604051631057c74d60e11b81526000906001600160a01b038316906320af8e9a906109f2903390859036906004016126a1565b6000604051808303816000875af1158015610a11573d6000803e3d6000fd5b505050506040513d6000823e601f3d908101601f19168201604052610a3991908101906126c6565b9050610a47888888886118a1565b604051630b9dfbed60e11b81529094506001600160a01b0383169063173bf7da90610a76908490600401612483565b6020604051808303816000875af1158015610a95573d6000803e3d6000fd5b505050506040513d601f19601f82011682018060405250810190610ab99190612733565b610ad65760405163546b3e6360e01b815260040160405180910390fd5b505b5050949350505050565b6001600052600080516020612abd8339815191526020527f643a0023cfcea778bfa72ce77c7e63d8b140a6542bf3f6edb59a96ccce28ad86546001600160a01b031615610b2e57600080fd5b610b366118d7565b600080610b458385018561259a565b915091506000826001600160a01b031682604051610b6391906128cc565b600060405180830381855af49150503d8060008114610b9e576040519150601f19603f3d011682016040523d82523d6000602084013e610ba3565b606091505b5050905080610bb157600080fd5b5050505050565b33735ff137d4b0fdcd49dca30c7cf57e578a026d27891480610bd957503330145b610bf657604051635629665f60e11b815260040160405180910390fd5b610945838383611909565b6060600080516020612a5d833981519152610c1c8133611605565b610c3b57604051635c93ff2f60e11b81523360048201526024016105d3565b6000610c53600080516020612a7d8339815191525490565b90506001600160a01b038116610c7c57604051634851657960e11b815260040160405180910390fd5b604051631057c74d60e11b81526000906001600160a01b038316906320af8e9a90610caf903390859036906004016126a1565b6000604051808303816000875af1158015610cce573d6000803e3d6000fd5b505050506040513d6000823e601f3d908101601f19168201604052610cf691908101906126c6565b9050604051634851657960e11b815260040160405180910390fd5b6020604051808303816000875af1158015610d30573d6000803e3d6000fd5b505050506040513d601f19601f82011682018060405250810190610d549190612733565b610d715760405163546b3e6360e01b815260040160405180910390fd5b50505092915050565b60606000600080516020612abd833981519152610d98818686611a05565b92509250505b9250929050565b6060600080516020612a5d833981519152610dc08133611605565b610ddf57604051635c93ff2f60e11b81523360048201526024016105d3565b6000610df7600080516020612a7d8339815191525490565b90506001600160a01b038116610e1857610e118585611715565b925061081f565b604051631057c74d60e11b81526000906001600160a01b038316906320af8e9a90610e4b903390859036906004016126a1565b6000604051808303816000875af1158015610e6a573d6000803e3d6000fd5b505050506040513d6000823e601f3d908101601f19168201604052610e9291908101906126c6565b9050610e9e8686611715565b604051630b9dfbed60e11b81529094506001600160a01b0383169063173bf7da90610d11908490600401612483565b6000816001600160a01b0316610eef600080516020612a7d8339815191525490565b6001600160a01b03161492915050565b33735ff137d4b0fdcd49dca30c7cf57e578a026d27891480610f2057503330145b610f3d57604051635629665f60e11b815260040160405180910390fd5b600080516020612abd833981519152600080610f5b8585018661259a565b604051638a91b0e360e01b815291935091506001600160a01b03871690638a91b0e390610f8c908490600401612483565b600060405180830381600087803b158015610fa657600080fd5b505af1158015610fba573d6000803e3d6000fd5b50610fcc925085915084905088611ba1565b6040516001600160a01b03871681527f36a773811aa40c53a642b0596c94174b588d0d1b2b9b6fa6e31c3c30d686163f9060200160405180910390a1505050505050565b606033735ff137d4b0fdcd49dca30c7cf57e578a026d2789148061103357503330145b61105057604051635629665f60e11b815260040160405180910390fd5b6000611068600080516020612a7d8339815191525490565b90506001600160a01b03811661108b57611084868686866118a1565b91506111a1565b604051631057c74d60e11b81526000906001600160a01b038316906320af8e9a906110be903390859036906004016126a1565b6000604051808303816000875af11580156110dd573d6000803e3d6000fd5b505050506040513d6000823e601f3d908101601f1916820160405261110591908101906126c6565b9050611113878787876118a1565b9250604051630b9dfbed60e11b81526001600160a01b0383169063173bf7da90611141908490600401612483565b6020604051808303816000875af1158015611160573d6000803e3d6000fd5b505050506040513d601f19601f820116820180604052508101906111849190612733565b610ad85760405163546b3e6360e01b815260040160405180910390fd5b50949350505050565b606033735ff137d4b0fdcd49dca30c7cf57e578a026d278914806111cd57503330145b6111ea57604051635629665f60e11b815260040160405180910390fd5b6000611202600080516020612a7d8339815191525490565b90506001600160a01b0381166112245761121d858585611c76565b91506108d9565b604051631057c74d60e11b81526000906001600160a01b038316906320af8e9a90611257903390859036906004016126a1565b6000604051808303816000875af1158015611276573d6000803e3d6000fd5b505050506040513d6000823e601f3d908101601f1916820160405261129e91908101906126c6565b90506112ab868686611c76565b9250604051630b9dfbed60e11b81526001600160a01b0383169063173bf7da906112d9908490600401612483565b6020604051808303816000875af11580156112f8573d6000803e3d6000fd5b505050506040513d601f19601f8201168201806040525081019061131c9190612733565b6113395760405163546b3e6360e01b815260040160405180910390fd5b50509392505050565b33735ff137d4b0fdcd49dca30c7cf57e578a026d2789148061136357503330145b61138057604051635629665f60e11b815260040160405180910390fd5b60008061138f8385018561259a565b604051638a91b0e360e01b815291935091506001600160a01b03861690638a91b0e3906113c0908490600401612483565b600060405180830381600087803b1580156113da57600080fd5b505af11580156113ee573d6000803e3d6000fd5b505050506000611409600080516020612abd83398151915290565b6001019050610fcc818488611ba1565b33735ff137d4b0fdcd49dca30c7cf57e578a026d2789148061143a57503330145b61145757604051635629665f60e11b815260040160405180910390fd5b6109458282611caa565b60606000600080516020612a5d833981519152610d98818686611a05565b33735ff137d4b0fdcd49dca30c7cf57e578a026d278914806114a057503330145b6114bd57604051635629665f60e11b815260040160405180910390fd5b610945838383611d2f565b33735ff137d4b0fdcd49dca30c7cf57e578a026d278914806114e957503330145b61150657604051635629665f60e11b815260040160405180910390fd5b610945838383611deb565b60006377a17fc360e11b6001600160e01b031983160161153357506001919050565b635336598160e11b6001600160e01b031983160161155357506001919050565b6304108fd960e01b6001600160e01b031983160161157357506001919050565b634d3ec35d60e01b6001600160e01b031983160161159357506001919050565b61054682611ea3565b6040516306d61fe760e41b81526001600160a01b03841690636d61fe70906115ca90859085906004016128e8565b600060405180830381600087803b1580156115e457600080fd5b505af11580156115f8573d6000803e3d6000fd5b5050505061094583611eee565b600060016001600160a01b038316148015906106455750506001600160a01b03908116600090815260209290925260409091205416151590565b60008061164f60148285876128fc565b61165891612926565b60601c9050611666816108e1565b61168e57604051635c93ff2f60e11b81526001600160a01b03821660048201526024016105d3565b6001600160a01b03811663f551e2ee33876116ac876014818b6128fc565b6040518563ffffffff1660e01b81526004016116cb9493929190612959565b602060405180830381865afa1580156116e8573d6000803e3d6000fd5b505050506040513d601f19601f8201168201806040525081019061170c919061298b565b95945050505050565b606081806001600160401b03811115611730576117306124d7565b60405190808252806020026020018201604052801561176357816020015b606081526020019060019003908161174e5790505b50915060005b8181101561081f5736858583818110611784576117846129a8565b905060200281019061179691906129be565b90506117bf6117a8602083018361225e565b60208301356117ba60408501856129d4565b6118a1565b8483815181106117d1576117d16129a8565b602090810291909101015250600101611769565b6040516306d61fe760e41b8152600080516020612abd833981519152906001600160a01b03851690636d61fe709061182390869086906004016128e8565b600060405180830381600087803b15801561183d57600080fd5b505af1158015611851573d6000803e3d6000fd5b505050506118688482611f3490919063ffffffff16565b6040516001600160a01b03851681527f2d91d9c220de5aa44766800ef0fe09b060fdd021b142ae4d21ce6a87b066d1709060200161061c565b60405181838237600038838387895af16118be573d6000823e3d81fd5b3d8152602081013d6000823e3d01604052949350505050565b600080516020612abd8339815191526118fd600080516020612a5d83398151915261200a565b6119068161200a565b50565b6000611921600080516020612a7d8339815191525490565b90506001600160a01b038116156119565760405163741cbe0360e01b81526001600160a01b03821660048201526024016105d3565b6040516306d61fe760e41b81526001600160a01b03851690636d61fe709061198490869086906004016128e8565b600060405180830381600087803b15801561199e57600080fd5b505af11580156119b2573d6000803e3d6000fd5b505050506119cc84600080516020612a7d83398151915255565b6040516001600160a01b03851681527f3a856255c5e96932045b28950075b0283c5ac4bc963209e8b2cfb002d24da8f89060200161061c565b606060006001600160a01b038416600114801590611a285750611a288585611605565b15611a5157604051637c84ecfb60e01b81526001600160a01b03851660048201526024016105d3565b82600003611a725760405163f725081760e01b815260040160405180910390fd5b826001600160401b03811115611a8a57611a8a6124d7565b604051908082528060200260200182016040528015611ab3578160200160208202803683370190505b506001600160a01b03808616600090815260208890526040812054929450911691505b6001600160a01b03821615801590611af857506001600160a01b038216600114155b8015611b0357508381105b15611b5d5781838281518110611b1b57611b1b6129a8565b6001600160a01b039283166020918202929092018101919091529281166000908152928790526040909220549091169080611b5581612a30565b915050611ad6565b6001600160a01b038216600114611b955782611b7a600183612a49565b81518110611b8a57611b8a6129a8565b602002602001015191505b80835250935093915050565b6001600160a01b0381161580611bc057506001600160a01b0381166001145b15611be957604051637c84ecfb60e01b81526001600160a01b03831660048201526024016105d3565b6001600160a01b03828116600090815260208590526040902054811690821614611c3157604051637c84ecfb60e01b81526001600160a01b03821660048201526024016105d3565b6001600160a01b0390811660008181526020949094526040808520805494841686529085208054949093166001600160a01b0319948516179092559092528154169055565b604051818382376000388383875af4611c92573d6000823e3d81fd5b3d8152602081013d6000823e3d016040529392505050565b6000611cc2600080516020612a9d8339815191525490565b604051638a91b0e360e01b81529091506001600160a01b03821690638a91b0e390611cf390869086906004016128e8565b600060405180830381600087803b158015611d0d57600080fd5b505af1158015611d21573d6000803e3d6000fd5b505050506109456000611eee565b6040516306d61fe760e41b8152600080516020612a5d833981519152906001600160a01b03851690636d61fe7090611d6d90869086906004016128e8565b600060405180830381600087803b158015611d8757600080fd5b505af1158015611d9b573d6000803e3d6000fd5b50505050611db28482611f3490919063ffffffff16565b6040516001600160a01b03851681527fa94a505d6d06d2648d04f969a277c083b36aacc22be6fc3ab6afbadee18b6eb99060200161061c565b604051638a91b0e360e01b81526001600160a01b03841690638a91b0e390611e1990859085906004016128e8565b600060405180830381600087803b158015611e3357600080fd5b505af1158015611e47573d6000803e3d6000fd5b50505050611e626000600080516020612a7d83398151915255565b6040516001600160a01b03841681527f625311a3e4dadff718f8d52e312c83fea5e767cf0d8780a7d21c9cbfa093a8ab9060200160405180910390a1505050565b600063b495ebe760e01b6001600160e01b0319831601611ec557506001919050565b63b495ebe760e01b6001600160e01b0319831601611ee557506001919050565b61054682612067565b306001600160a01b03821603611f2257604051634726455360e11b81526001600160a01b03821660048201526024016105d3565b600080516020612a9d83398151915255565b6001600160a01b0381161580611f5357506001600160a01b0381166001145b15611f7c57604051637c84ecfb60e01b81526001600160a01b03821660048201526024016105d3565b6001600160a01b038181166000908152602084905260409020541615611fc057604051631034f46960e21b81526001600160a01b03821660048201526024016105d3565b60016000818152602093909352604080842080546001600160a01b039485168087529286208054959091166001600160a01b03199586161790559190935280549091169091179055565b60016000908152602082905260409020546001600160a01b031615612042576040516329e42f3360e11b815260040160405180910390fd5b60016000818152602092909252604090912080546001600160a01b0319169091179055565b6000639c7f284760e01b6001600160e01b031983160161208957506001919050565b63fe00365960e01b6001600160e01b03198316016120a957506001919050565b630cd5c99f60e01b6001600160e01b03198316016120c957506001919050565b6313a0681b60e11b6001600160e01b03198316016120e957506001919050565b63f375101b60e01b6001600160e01b031983160161210957506001919050565b6316fd948160e31b6001600160e01b031983160161212957506001919050565b6326715e2160e11b6001600160e01b031983160161214957506001919050565b63bdbfa2e560e01b6001600160e01b031983160161216957506001919050565b506000919050565b6001600160e01b03198116811461190657600080fd5b60006020828403121561219957600080fd5b813561064581612171565b6001600160a01b038116811461190657600080fd5b80356121c4816121a4565b919050565b60008083601f8401126121db57600080fd5b5081356001600160401b038111156121f257600080fd5b602083019150836020828501011115610d9e57600080fd5b60008060006040848603121561221f57600080fd5b833561222a816121a4565b925060208401356001600160401b0381111561224557600080fd5b612251868287016121c9565b9497909650939450505050565b60006020828403121561227057600080fd5b8135610645816121a4565b60008060006040848603121561229057600080fd5b8335925060208401356001600160401b0381111561224557600080fd5b600080602083850312156122c057600080fd5b82356001600160401b03808211156122d757600080fd5b818501915085601f8301126122eb57600080fd5b8135818111156122fa57600080fd5b8660208260051b850101111561230f57600080fd5b60209290920196919550909350505050565b60005b8381101561233c578181015183820152602001612324565b50506000910152565b6000815180845261235d816020860160208601612321565b601f01601f19169290920160200192915050565b600060208083016020845280855180835260408601915060408160051b87010192506020870160005b828110156123c857603f198886030184526123b6858351612345565b9450928501929085019060010161239a565b5092979650505050505050565b6000806000606084860312156123ea57600080fd5b83356001600160401b0381111561240057600080fd5b8401610160818703121561241357600080fd5b95602085013595506040909401359392505050565b6000806000806060858703121561243e57600080fd5b8435612449816121a4565b93506020850135925060408501356001600160401b0381111561246b57600080fd5b612477878288016121c9565b95989497509550505050565b6020815260006106456020830184612345565b600080602083850312156124a957600080fd5b82356001600160401b038111156124bf57600080fd5b6124cb858286016121c9565b90969095509350505050565b634e487b7160e01b600052604160045260246000fd5b604051601f8201601f191681016001600160401b0381118282101715612515576125156124d7565b604052919050565b60006001600160401b03821115612536576125366124d7565b50601f01601f191660200190565b600082601f83011261255557600080fd5b81356125686125638261251d565b6124ed565b81815284602083860101111561257d57600080fd5b816020850160208301376000918101602001919091529392505050565b600080604083850312156125ad57600080fd5b82356125b8816121a4565b915060208301356001600160401b038111156125d357600080fd5b6125df85828601612544565b9150509250929050565b600080604083850312156125fc57600080fd5b8235612607816121a4565b946020939093013593505050565b604080825283519082018190526000906020906060840190828701845b828110156126575781516001600160a01b031684529284019290840190600101612632565b5050506001600160a01b039490941660209390930192909252509092915050565b81835281816020850137506000828201602090810191909152601f909101601f19169091010190565b6001600160a01b038416815260406020820181905260009061170c9083018486612678565b6000602082840312156126d857600080fd5b81516001600160401b038111156126ee57600080fd5b8201601f810184136126ff57600080fd5b805161270d6125638261251d565b81815285602083850101111561272257600080fd5b61170c826020830160208601612321565b60006020828403121561274557600080fd5b8151801515811461064557600080fd5b6000808335601e1984360301811261276c57600080fd5b83016020810192503590506001600160401b0381111561278b57600080fd5b803603821315610d9e57600080fd5b604081526127bb604082016127ae856121b9565b6001600160a01b03169052565b6020830135606082015260006127d46040850185612755565b6101608060808601526127ec6101a086018385612678565b92506127fb6060880188612755565b9250603f19808786030160a0880152612815858584612678565b9450608089013560c088015260a089013560e0880152610100935060c089013584880152610120915060e089013582880152610140848a01358189015261285e838b018b612755565b95509250818887030184890152612876868685612678565b9550612884818b018b612755565b9550935050808786030161018088015250506128a1838383612678565b93505050508260208301529392505050565b6000602082840312156128c557600080fd5b5051919050565b600082516128de818460208701612321565b9190910192915050565b602081526000610659602083018486612678565b6000808585111561290c57600080fd5b8386111561291957600080fd5b5050820193919092039150565b6bffffffffffffffffffffffff19813581811691601485101561081f5760149490940360031b84901b1690921692915050565b60018060a01b0385168152836020820152606060408201526000612981606083018486612678565b9695505050505050565b60006020828403121561299d57600080fd5b815161064581612171565b634e487b7160e01b600052603260045260246000fd5b60008235605e198336030181126128de57600080fd5b6000808335601e198436030181126129eb57600080fd5b8301803591506001600160401b03821115612a0557600080fd5b602001915036819003821315610d9e57600080fd5b634e487b7160e01b600052601160045260246000fd5b600060018201612a4257612a42612a1a565b5060010190565b8181038181111561054657610546612a1a56fef88ce1fdb7fb1cbd3282e49729100fa3f2d6ee9f797961fe4fb1871cea89ea0336e05829dd1b9a4411d96a3549582172d7f071c1c0db5c573fcf94eb284316089c63439e8db454cdf22fd3d05d35ed5ea662f6ebbc519905ab830d38464df094f88ce1fdb7fb1cbd3282e49729100fa3f2d6ee9f797961fe4fb1871cea89ea02a26469706673582212205d2c6cae8ecfcc50543ac91bb197a1f1fc4c3cd4fd5b8c6c58052c6b51bea16c64736f6c63430008170033",
    "linkReferences": {}
  },
  "methodIdentifiers": {
    "entryPoint()": "b0d691fe",
    "execute(address,uint256,bytes)": "b61d27f6",
    "executeBatch((address,uint256,bytes)[])": "34fcd5be",
    "executeBatchFromExecutor((address,uint256,bytes)[])": "899764e6",
    "executeDelegateCall(address,bytes)": "b68df16d",
    "executeDelegateCallFromExecutor(address,bytes)": "6613e1ed",
    "executeFromExecutor(address,uint256,bytes)": "4899c131",
    "getExecutorsPaginated(address,uint256)": "ea5f61d0",
    "getValidatorPaginated(address,uint256)": "85571368",
    "initializeAccount(bytes)": "4b6a1419",
    "installExecutor(address,bytes)": "f32a3661",
    "installFallback(address,bytes)": "053c6d98",
    "installHook(address,bytes)": "59934cfe",
    "installValidator(address,bytes)": "48135bf8",
    "isExecutorInstalled(address)": "0c8aefe5",
    "isFallbackInstalled(address)": "200ff328",
    "isHookInstalled(address)": "b2c13ca3",
    "isValidSignature(bytes32,bytes)": "1626ba7e",
    "isValidatorInstalled(address)": "42405d1b",
    "supportsInterface(bytes4)": "01ffc9a7",
    "uninstallExecutor(address,bytes)": "d8bf2fca",
    "uninstallFallback(address,bytes)": "d8e2fa1a",
    "uninstallHook(address,bytes)": "fbef7027",
    "uninstallValidator(address,bytes)": "b31d43be",
    "validateUserOp((address,uint256,bytes,bytes,uint256,uint256,uint256,uint256,uint256,bytes,bytes),bytes32,uint256)": "3a871cdd"
  },
  "id": 38
}